{
  "_format": "hh-sol-artifact-1",
  "contractName": "Collateral",
  "sourceName": "contracts/Collateral.sol",
  "abi": [
    {
      "inputs": [
        {
          "internalType": "uint16",
          "name": "netuid",
          "type": "uint16"
        },
        {
          "internalType": "uint256",
          "name": "minCollateralIncrease",
          "type": "uint256"
        },
        {
          "internalType": "uint64",
          "name": "decisionTimeout",
          "type": "uint64"
        }
      ],
      "stateMutability": "nonpayable",
      "type": "constructor"
    },
    {
      "inputs": [],
      "name": "AmountZero",
      "type": "error"
    },
    {
      "inputs": [],
      "name": "BeforeDenyTimeout",
      "type": "error"
    },
    {
      "inputs": [
        {
          "internalType": "bytes32",
          "name": "hotkey",
          "type": "bytes32"
        },
        {
          "internalType": "address",
          "name": "existingAddress",
          "type": "address"
        }
      ],
      "name": "HotkeyAlreadyMapped",
      "type": "error"
    },
    {
      "inputs": [],
      "name": "InsufficientAmount",
      "type": "error"
    },
    {
      "inputs": [],
      "name": "InvalidDepositMethod",
      "type": "error"
    },
    {
      "inputs": [],
      "name": "NotTrustee",
      "type": "error"
    },
    {
      "inputs": [],
      "name": "PastDenyTimeout",
      "type": "error"
    },
    {
      "inputs": [],
      "name": "ReclaimAmountTooLarge",
      "type": "error"
    },
    {
      "inputs": [],
      "name": "ReclaimAmountTooSmall",
      "type": "error"
    },
    {
      "inputs": [],
      "name": "ReclaimNotFound",
      "type": "error"
    },
    {
      "inputs": [],
      "name": "TransferFailed",
      "type": "error"
    },
    {
      "anonymous": false,
      "inputs": [
        {
          "indexed": true,
          "internalType": "uint256",
          "name": "reclaimRequestId",
          "type": "uint256"
        },
        {
          "indexed": false,
          "internalType": "string",
          "name": "url",
          "type": "string"
        },
        {
          "indexed": false,
          "internalType": "bytes16",
          "name": "urlContentMd5Checksum",
          "type": "bytes16"
        }
      ],
      "name": "Denied",
      "type": "event"
    },
    {
      "anonymous": false,
      "inputs": [
        {
          "indexed": true,
          "internalType": "address",
          "name": "account",
          "type": "address"
        },
        {
          "indexed": false,
          "internalType": "uint256",
          "name": "amount",
          "type": "uint256"
        }
      ],
      "name": "Deposit",
      "type": "event"
    },
    {
      "anonymous": false,
      "inputs": [
        {
          "indexed": true,
          "internalType": "bytes32",
          "name": "hotkey",
          "type": "bytes32"
        },
        {
          "indexed": true,
          "internalType": "address",
          "name": "ethereumAddress",
          "type": "address"
        }
      ],
      "name": "HotkeyMapped",
      "type": "event"
    },
    {
      "anonymous": false,
      "inputs": [
        {
          "indexed": true,
          "internalType": "uint256",
          "name": "reclaimRequestId",
          "type": "uint256"
        },
        {
          "indexed": true,
          "internalType": "address",
          "name": "account",
          "type": "address"
        },
        {
          "indexed": false,
          "internalType": "uint256",
          "name": "amount",
          "type": "uint256"
        },
        {
          "indexed": false,
          "internalType": "uint64",
          "name": "expirationTime",
          "type": "uint64"
        },
        {
          "indexed": false,
          "internalType": "string",
          "name": "url",
          "type": "string"
        },
        {
          "indexed": false,
          "internalType": "bytes16",
          "name": "urlContentMd5Checksum",
          "type": "bytes16"
        }
      ],
      "name": "ReclaimProcessStarted",
      "type": "event"
    },
    {
      "anonymous": false,
      "inputs": [
        {
          "indexed": true,
          "internalType": "uint256",
          "name": "reclaimRequestId",
          "type": "uint256"
        },
        {
          "indexed": true,
          "internalType": "address",
          "name": "account",
          "type": "address"
        },
        {
          "indexed": false,
          "internalType": "uint256",
          "name": "amount",
          "type": "uint256"
        }
      ],
      "name": "Reclaimed",
      "type": "event"
    },
    {
      "anonymous": false,
      "inputs": [
        {
          "indexed": true,
          "internalType": "address",
          "name": "account",
          "type": "address"
        },
        {
          "indexed": false,
          "internalType": "uint256",
          "name": "amount",
          "type": "uint256"
        },
        {
          "indexed": false,
          "internalType": "string",
          "name": "url",
          "type": "string"
        },
        {
          "indexed": false,
          "internalType": "bytes16",
          "name": "urlContentMd5Checksum",
          "type": "bytes16"
        }
      ],
      "name": "Slashed",
      "type": "event"
    },
    {
      "stateMutability": "payable",
      "type": "fallback"
    },
    {
      "inputs": [],
      "name": "DECISION_TIMEOUT",
      "outputs": [
        {
          "internalType": "uint64",
          "name": "",
          "type": "uint64"
        }
      ],
      "stateMutability": "view",
      "type": "function"
    },
    {
      "inputs": [],
      "name": "MIN_COLLATERAL_INCREASE",
      "outputs": [
        {
          "internalType": "uint256",
          "name": "",
          "type": "uint256"
        }
      ],
      "stateMutability": "view",
      "type": "function"
    },
    {
      "inputs": [],
      "name": "NETUID",
      "outputs": [
        {
          "internalType": "uint16",
          "name": "",
          "type": "uint16"
        }
      ],
      "stateMutability": "view",
      "type": "function"
    },
    {
      "inputs": [
        {
          "internalType": "address",
          "name": "",
          "type": "address"
        },
        {
          "internalType": "bytes16",
          "name": "",
          "type": "bytes16"
        }
      ],
      "name": "collateralPerExecutor",
      "outputs": [
        {
          "internalType": "uint256",
          "name": "",
          "type": "uint256"
        }
      ],
      "stateMutability": "view",
      "type": "function"
    },
    {
      "inputs": [
        {
          "internalType": "address",
          "name": "",
          "type": "address"
        }
      ],
      "name": "collaterals",
      "outputs": [
        {
          "internalType": "uint256",
          "name": "",
          "type": "uint256"
        }
      ],
      "stateMutability": "view",
      "type": "function"
    },
    {
      "inputs": [
        {
          "internalType": "uint256",
          "name": "reclaimRequestId",
          "type": "uint256"
        },
        {
          "internalType": "string",
          "name": "url",
          "type": "string"
        },
        {
          "internalType": "bytes16",
          "name": "urlContentMd5Checksum",
          "type": "bytes16"
        }
      ],
      "name": "denyReclaimRequest",
      "outputs": [],
      "stateMutability": "nonpayable",
      "type": "function"
    },
    {
      "inputs": [
        {
          "internalType": "address",
          "name": "validator",
          "type": "address"
        },
        {
          "internalType": "bytes16",
          "name": "executorUuid",
          "type": "bytes16"
        }
      ],
      "name": "deposit",
      "outputs": [],
      "stateMutability": "payable",
      "type": "function"
    },
    {
      "inputs": [
        {
          "internalType": "uint256",
          "name": "reclaimRequestId",
          "type": "uint256"
        }
      ],
      "name": "finalizeReclaim",
      "outputs": [],
      "stateMutability": "nonpayable",
      "type": "function"
    },
    {
      "inputs": [
        {
          "internalType": "address",
          "name": "miner",
          "type": "address"
        }
      ],
      "name": "getEligibleExecutors",
      "outputs": [
        {
          "internalType": "bytes16[]",
          "name": "",
          "type": "bytes16[]"
        }
      ],
      "stateMutability": "view",
      "type": "function"
    },
    {
      "inputs": [
        {
          "internalType": "bytes32",
          "name": "",
          "type": "bytes32"
        }
      ],
      "name": "hotkeyToEthereumAddress",
      "outputs": [
        {
          "internalType": "address",
          "name": "",
          "type": "address"
        }
      ],
      "stateMutability": "view",
      "type": "function"
    },
    {
      "inputs": [
        {
          "internalType": "bytes32",
          "name": "hotkey",
          "type": "bytes32"
        }
      ],
      "name": "mapHotkeyToEthereumAddress",
      "outputs": [],
      "stateMutability": "nonpayable",
      "type": "function"
    },
    {
      "inputs": [
        {
          "internalType": "uint256",
          "name": "amount",
          "type": "uint256"
        },
        {
          "internalType": "string",
          "name": "url",
          "type": "string"
        },
        {
          "internalType": "bytes16",
          "name": "urlContentMd5Checksum",
          "type": "bytes16"
        },
        {
          "internalType": "bytes16",
          "name": "executorUuid",
          "type": "bytes16"
        }
      ],
      "name": "reclaimCollateral",
      "outputs": [],
      "stateMutability": "nonpayable",
      "type": "function"
    },
    {
      "inputs": [
        {
          "internalType": "uint256",
          "name": "",
          "type": "uint256"
        }
      ],
      "name": "reclaims",
      "outputs": [
        {
          "internalType": "address",
          "name": "miner",
          "type": "address"
        },
        {
          "internalType": "uint256",
          "name": "amount",
          "type": "uint256"
        },
        {
          "internalType": "uint256",
          "name": "denyTimeout",
          "type": "uint256"
        },
        {
          "internalType": "bytes16",
          "name": "executorUuid",
          "type": "bytes16"
        }
      ],
      "stateMutability": "view",
      "type": "function"
    },
    {
      "inputs": [
        {
          "internalType": "address",
          "name": "miner",
          "type": "address"
        },
        {
          "internalType": "uint256",
          "name": "amount",
          "type": "uint256"
        },
        {
          "internalType": "string",
          "name": "url",
          "type": "string"
        },
        {
          "internalType": "bytes16",
          "name": "urlContentMd5Checksum",
          "type": "bytes16"
        },
        {
          "internalType": "bytes16",
          "name": "executorUuid",
          "type": "bytes16"
        }
      ],
      "name": "slashCollateral",
      "outputs": [],
      "stateMutability": "nonpayable",
      "type": "function"
    },
    {
      "inputs": [
        {
          "internalType": "address",
          "name": "",
          "type": "address"
        }
      ],
      "name": "validatorOfMiner",
      "outputs": [
        {
          "internalType": "address",
          "name": "",
          "type": "address"
        }
      ],
      "stateMutability": "view",
      "type": "function"
    },
    {
      "stateMutability": "payable",
      "type": "receive"
    }
  ],
  "bytecode": "0x60e060405234801561001057600080fd5b50604051612bbf380380612bbf833981810160405281019061003291906101b3565b60008211610075576040517f08c379a000000000000000000000000000000000000000000000000000000000815260040161006c90610289565b60405180910390fd5b60008167ffffffffffffffff16116100c2576040517f08c379a00000000000000000000000000000000000000000000000000000000081526004016100b99061031b565b60405180910390fd5b8261ffff1660808161ffff16815250508160c081815250508067ffffffffffffffff1660a08167ffffffffffffffff168152505050505061033b565b600080fd5b600061ffff82169050919050565b61011a81610103565b811461012557600080fd5b50565b60008151905061013781610111565b92915050565b6000819050919050565b6101508161013d565b811461015b57600080fd5b50565b60008151905061016d81610147565b92915050565b600067ffffffffffffffff82169050919050565b61019081610173565b811461019b57600080fd5b50565b6000815190506101ad81610187565b92915050565b6000806000606084860312156101cc576101cb6100fe565b5b60006101da86828701610128565b93505060206101eb8682870161015e565b92505060406101fc8682870161019e565b9150509250925092565b600082825260208201905092915050565b7f4d696e20636f6c6c61746572616c20696e637265617365206d7573742062652060008201527f67726561746572207468616e2030000000000000000000000000000000000000602082015250565b6000610273602e83610206565b915061027e82610217565b604082019050919050565b600060208201905081810360008301526102a281610266565b9050919050565b7f4465636973696f6e2074696d656f7574206d757374206265206772656174657260008201527f207468616e203000000000000000000000000000000000000000000000000000602082015250565b6000610305602783610206565b9150610310826102a9565b604082019050919050565b60006020820190508181036000830152610334816102f8565b9050919050565b60805160a05160c05161284061037f60003960008181610a92015281816110180152611844015260008181610afa01526113960152600061043201526128406000f3fe6080604052600436106100ec5760003560e01c806396c42a0a1161008a578063c7abe82011610059578063c7abe8201461035d578063d1f008a51461039a578063d4ba6bac146103b6578063eeb97d3b146103f357610123565b806396c42a0a146102a05780639cf96318146102cb578063b276d2321461030b578063b4314e2b1461033457610123565b80631d9bb4c9116100c65780631d9bb4c9146101d25780633b27bdbc1461020f5780634a7393b21461024c57806387776a811461027757610123565b806306016f711461015557806307d867881461018057806318a702ba146101a957610123565b36610123576040517f84ee6c0a00000000000000000000000000000000000000000000000000000000815260040160405180910390fd5b6040517f84ee6c0a00000000000000000000000000000000000000000000000000000000815260040160405180910390fd5b34801561016157600080fd5b5061016a610430565b6040516101779190611dce565b60405180910390f35b34801561018c57600080fd5b506101a760048036038101906101a29190611e29565b610454565b005b3480156101b557600080fd5b506101d060048036038101906101cb9190611f13565b610979565b005b3480156101de57600080fd5b506101f960048036038101906101f49190611ff9565b610ce8565b60405161020691906120e4565b60405180910390f35b34801561021b57600080fd5b5061023660048036038101906102319190612106565b610ff1565b6040516102439190612155565b60405180910390f35b34801561025857600080fd5b50610261611016565b60405161026e9190612155565b60405180910390f35b34801561028357600080fd5b5061029e60048036038101906102999190612170565b61103a565b005b3480156102ac57600080fd5b506102b5611394565b6040516102c2919061222d565b60405180910390f35b3480156102d757600080fd5b506102f260048036038101906102ed9190611e29565b6113b8565b6040516103029493929190612266565b60405180910390f35b34801561031757600080fd5b50610332600480360381019061032d91906122e1565b611415565b005b34801561034057600080fd5b5061035b6004803603810190610356919061230e565b6114f3565b005b34801561036957600080fd5b50610384600480360381019061037f9190611ff9565b61180f565b6040516103919190612382565b60405180910390f35b6103b460048036038101906103af9190612106565b611842565b005b3480156103c257600080fd5b506103dd60048036038101906103d891906122e1565b611d66565b6040516103ea9190612382565b60405180910390f35b3480156103ff57600080fd5b5061041a60048036038101906104159190611ff9565b611d99565b6040516104279190612155565b60405180910390f35b7f000000000000000000000000000000000000000000000000000000000000000081565b60008060008381526020019081526020016000206040518060800160405290816000820160009054906101000a900473ffffffffffffffffffffffffffffffffffffffff1673ffffffffffffffffffffffffffffffffffffffff1673ffffffffffffffffffffffffffffffffffffffff16815260200160018201548152602001600282015481526020016003820160009054906101000a900460801b6fffffffffffffffffffffffffffffffff19166fffffffffffffffffffffffffffffffff1916815250509050600081602001510361055a576040517f642e3ad700000000000000000000000000000000000000000000000000000000815260040160405180910390fd5b42816040015110610597576040517f3355482c00000000000000000000000000000000000000000000000000000000815260040160405180910390fd5b3373ffffffffffffffffffffffffffffffffffffffff1660036000836000015173ffffffffffffffffffffffffffffffffffffffff1673ffffffffffffffffffffffffffffffffffffffff16815260200190815260200160002060009054906101000a900473ffffffffffffffffffffffffffffffffffffffff1673ffffffffffffffffffffffffffffffffffffffff161461065f576040517f5aa309bb00000000000000000000000000000000000000000000000000000000815260040160405180910390fd5b600080838152602001908152602001600020600080820160006101000a81549073ffffffffffffffffffffffffffffffffffffffff0219169055600182016000905560028201600090556003820160006101000a8154906fffffffffffffffffffffffffffffffff02191690555050806020015160026000836000015173ffffffffffffffffffffffffffffffffffffffff1673ffffffffffffffffffffffffffffffffffffffff168152602001908152602001600020600082825461072591906123cc565b92505081905550806020015160016000836000015173ffffffffffffffffffffffffffffffffffffffff1673ffffffffffffffffffffffffffffffffffffffff168152602001908152602001600020541061097557806020015160046000836000015173ffffffffffffffffffffffffffffffffffffffff1673ffffffffffffffffffffffffffffffffffffffff168152602001908152602001600020600083606001516fffffffffffffffffffffffffffffffff19166fffffffffffffffffffffffffffffffff19168152602001908152602001600020600082825461080c91906123cc565b92505081905550806020015160016000836000015173ffffffffffffffffffffffffffffffffffffffff1673ffffffffffffffffffffffffffffffffffffffff168152602001908152602001600020600082825461086a91906123cc565b92505081905550806000015173ffffffffffffffffffffffffffffffffffffffff16827fe79f76d3ef42e7845b4f718917861642d857a02a4e690c28e79e5af7f5f8f2d383602001516040516108c09190612155565b60405180910390a36000816000015173ffffffffffffffffffffffffffffffffffffffff1682602001516040516108f690612431565b60006040518083038185875af1925050503d8060008114610933576040519150601f19603f3d011682016040523d82523d6000602084013e610938565b606091505b5050905080610973576040517f90b8ec1800000000000000000000000000000000000000000000000000000000815260040160405180910390fd5b505b5050565b600085036109b3576040517fcbca5aa200000000000000000000000000000000000000000000000000000000815260040160405180910390fd5b6000600160003373ffffffffffffffffffffffffffffffffffffffff1673ffffffffffffffffffffffffffffffffffffffff1681526020019081526020016000205490506000600260003373ffffffffffffffffffffffffffffffffffffffff1673ffffffffffffffffffffffffffffffffffffffff16815260200190815260200160002054905060008183610a4991906123cc565b9050828883610a589190612446565b1115610a90576040517ff250313b00000000000000000000000000000000000000000000000000000000815260040160405180910390fd5b7f000000000000000000000000000000000000000000000000000000000000000088108015610abf5750878114155b15610af6576040517fe39815fd00000000000000000000000000000000000000000000000000000000815260040160405180910390fd5b60007f000000000000000000000000000000000000000000000000000000000000000042610b24919061247a565b905060405180608001604052803373ffffffffffffffffffffffffffffffffffffffff1681526020018a81526020018267ffffffffffffffff168152602001866fffffffffffffffffffffffffffffffff1916815250600080600760008154610b8c906124b6565b919050819055815260200190815260200160002060008201518160000160006101000a81548173ffffffffffffffffffffffffffffffffffffffff021916908373ffffffffffffffffffffffffffffffffffffffff160217905550602082015181600101556040820151816002015560608201518160030160006101000a8154816fffffffffffffffffffffffffffffffff021916908360801c021790555090505088600260003373ffffffffffffffffffffffffffffffffffffffff1673ffffffffffffffffffffffffffffffffffffffff1681526020019081526020016000206000828254610c7d9190612446565b925050819055503373ffffffffffffffffffffffffffffffffffffffff166007547f2f943e4cd7c1436030677d9a3aad2cc7d2d62a62e101978e5ae4a85ae24ce72a8b848c8c8c604051610cd595949392919061255c565b60405180910390a3505050505050505050565b60606000600660008473ffffffffffffffffffffffffffffffffffffffff1673ffffffffffffffffffffffffffffffffffffffff168152602001908152602001600020805480602002602001604051908101604052809291908181526020018280548015610dab57602002820191906000526020600020906000905b82829054906101000a900460801b6fffffffffffffffffffffffffffffffff191681526020019060100190602082600f01049283019260010382029150808411610d645790505b505050505090506000805b8251811015610e74576000600460008773ffffffffffffffffffffffffffffffffffffffff1673ffffffffffffffffffffffffffffffffffffffff1681526020019081526020016000206000858481518110610e1557610e146125aa565b5b60200260200101516fffffffffffffffffffffffffffffffff19166fffffffffffffffffffffffffffffffff19168152602001908152602001600020541115610e67578180610e63906124b6565b9250505b8080600101915050610db6565b5060008167ffffffffffffffff811115610e9157610e906125d9565b5b604051908082528060200260200182016040528015610ebf5781602001602082028036833780820191505090505b5090506000805b8451811015610fe4576000600460008973ffffffffffffffffffffffffffffffffffffffff1673ffffffffffffffffffffffffffffffffffffffff1681526020019081526020016000206000878481518110610f2557610f246125aa565b5b60200260200101516fffffffffffffffffffffffffffffffff19166fffffffffffffffffffffffffffffffff19168152602001908152602001600020541115610fd757848181518110610f7b57610f7a6125aa565b5b6020026020010151838380610f8f906124b6565b945081518110610fa257610fa16125aa565b5b60200260200101906fffffffffffffffffffffffffffffffff191690816fffffffffffffffffffffffffffffffff1916815250505b8080600101915050610ec6565b5081945050505050919050565b6004602052816000526040600020602052806000526040600020600091509150505481565b7f000000000000000000000000000000000000000000000000000000000000000081565b60008503611074576040517fcbca5aa200000000000000000000000000000000000000000000000000000000815260040160405180910390fd5b84600160008873ffffffffffffffffffffffffffffffffffffffff1673ffffffffffffffffffffffffffffffffffffffff1681526020019081526020016000205410156110ed576040517f5945ea5600000000000000000000000000000000000000000000000000000000815260040160405180910390fd5b3373ffffffffffffffffffffffffffffffffffffffff16600360008873ffffffffffffffffffffffffffffffffffffffff1673ffffffffffffffffffffffffffffffffffffffff16815260200190815260200160002060009054906101000a900473ffffffffffffffffffffffffffffffffffffffff1673ffffffffffffffffffffffffffffffffffffffff16146111b1576040517f5aa309bb00000000000000000000000000000000000000000000000000000000815260040160405180910390fd5b84600160008873ffffffffffffffffffffffffffffffffffffffff1673ffffffffffffffffffffffffffffffffffffffff168152602001908152602001600020600082825461120091906123cc565b9250508190555060008073ffffffffffffffffffffffffffffffffffffffff168660405161122d90612431565b60006040518083038185875af1925050503d806000811461126a576040519150601f19603f3d011682016040523d82523d6000602084013e61126f565b606091505b50509050806112aa576040517f90b8ec1800000000000000000000000000000000000000000000000000000000815260040160405180910390fd5b85600460008973ffffffffffffffffffffffffffffffffffffffff1673ffffffffffffffffffffffffffffffffffffffff1681526020019081526020016000206000846fffffffffffffffffffffffffffffffff19166fffffffffffffffffffffffffffffffff19168152602001908152602001600020600082825461133091906123cc565b925050819055508673ffffffffffffffffffffffffffffffffffffffff167f13e34a2b471e94d4eaadfef8e57e8773fdb4657d2d5cdbd264e2efbd41196ab5878787876040516113839493929190612608565b60405180910390a250505050505050565b7f000000000000000000000000000000000000000000000000000000000000000081565b60006020528060005260406000206000915090508060000160009054906101000a900473ffffffffffffffffffffffffffffffffffffffff16908060010154908060020154908060030160009054906101000a900460801b905084565b6000801b810361145a576040517f08c379a000000000000000000000000000000000000000000000000000000000815260040161145190612694565b60405180910390fd5b336005600083815260200190815260200160002060006101000a81548173ffffffffffffffffffffffffffffffffffffffff021916908373ffffffffffffffffffffffffffffffffffffffff1602179055503373ffffffffffffffffffffffffffffffffffffffff16817f53b3b9aa84185a0978c3490ab38a6121ef95740701fee0ab1d7269625299a2da60405160405180910390a350565b60008060008681526020019081526020016000206040518060800160405290816000820160009054906101000a900473ffffffffffffffffffffffffffffffffffffffff1673ffffffffffffffffffffffffffffffffffffffff1673ffffffffffffffffffffffffffffffffffffffff16815260200160018201548152602001600282015481526020016003820160009054906101000a900460801b6fffffffffffffffffffffffffffffffff19166fffffffffffffffffffffffffffffffff191681525050905060008160200151036115f9576040517f642e3ad700000000000000000000000000000000000000000000000000000000815260040160405180910390fd5b3373ffffffffffffffffffffffffffffffffffffffff1660036000836000015173ffffffffffffffffffffffffffffffffffffffff1673ffffffffffffffffffffffffffffffffffffffff16815260200190815260200160002060009054906101000a900473ffffffffffffffffffffffffffffffffffffffff1673ffffffffffffffffffffffffffffffffffffffff16146116c1576040517f5aa309bb00000000000000000000000000000000000000000000000000000000815260040160405180910390fd5b42816040015110156116ff576040517ffc9e5c0200000000000000000000000000000000000000000000000000000000815260040160405180910390fd5b806020015160026000836000015173ffffffffffffffffffffffffffffffffffffffff1673ffffffffffffffffffffffffffffffffffffffff168152602001908152602001600020600082825461175691906123cc565b92505081905550847f6067048e78883441f7c7f1b3ad8f94a88b1567a486029be8a830e9455f61edb9858585604051611791939291906126b4565b60405180910390a2600080868152602001908152602001600020600080820160006101000a81549073ffffffffffffffffffffffffffffffffffffffff0219169055600182016000905560028201600090556003820160006101000a8154906fffffffffffffffffffffffffffffffff021916905550505050505050565b60036020528060005260406000206000915054906101000a900473ffffffffffffffffffffffffffffffffffffffff1681565b7f000000000000000000000000000000000000000000000000000000000000000034101561189c576040517f5945ea5600000000000000000000000000000000000000000000000000000000815260040160405180910390fd5b600073ffffffffffffffffffffffffffffffffffffffff168273ffffffffffffffffffffffffffffffffffffffff160361190b576040517f08c379a000000000000000000000000000000000000000000000000000000000815260040161190290612758565b60405180910390fd5b6000600360003373ffffffffffffffffffffffffffffffffffffffff1673ffffffffffffffffffffffffffffffffffffffff16815260200190815260200160002060009054906101000a900473ffffffffffffffffffffffffffffffffffffffff169050600073ffffffffffffffffffffffffffffffffffffffff168173ffffffffffffffffffffffffffffffffffffffff16141580156119d857508273ffffffffffffffffffffffffffffffffffffffff168173ffffffffffffffffffffffffffffffffffffffff1614155b15611ae2576000600260003373ffffffffffffffffffffffffffffffffffffffff1673ffffffffffffffffffffffffffffffffffffffff1681526020019081526020016000205414611a5f576040517f08c379a0000000000000000000000000000000000000000000000000000000008152600401611a56906127ea565b60405180910390fd5b82600360003373ffffffffffffffffffffffffffffffffffffffff1673ffffffffffffffffffffffffffffffffffffffff16815260200190815260200160002060006101000a81548173ffffffffffffffffffffffffffffffffffffffff021916908373ffffffffffffffffffffffffffffffffffffffff160217905550611b96565b600073ffffffffffffffffffffffffffffffffffffffff168173ffffffffffffffffffffffffffffffffffffffff1603611b955782600360003373ffffffffffffffffffffffffffffffffffffffff1673ffffffffffffffffffffffffffffffffffffffff16815260200190815260200160002060006101000a81548173ffffffffffffffffffffffffffffffffffffffff021916908373ffffffffffffffffffffffffffffffffffffffff1602179055505b5b34600160003373ffffffffffffffffffffffffffffffffffffffff1673ffffffffffffffffffffffffffffffffffffffff1681526020019081526020016000206000828254611be59190612446565b9250508190555034600460003373ffffffffffffffffffffffffffffffffffffffff1673ffffffffffffffffffffffffffffffffffffffff1681526020019081526020016000206000846fffffffffffffffffffffffffffffffff19166fffffffffffffffffffffffffffffffff191681526020019081526020016000206000828254611c729190612446565b925050819055503373ffffffffffffffffffffffffffffffffffffffff167fe1fffcc4923d04b559f4d29a8bfc6cda04eb5b0d3c460751c2402c5c5cc9109c34604051611cbf9190612155565b60405180910390a26000600660003373ffffffffffffffffffffffffffffffffffffffff1673ffffffffffffffffffffffffffffffffffffffff1681526020019081526020016000209050808390806001815401808255809150506001900390600052602060002090600291828204019190066010029091909190916101000a8154816fffffffffffffffffffffffffffffffff021916908360801c021790555050505050565b60056020528060005260406000206000915054906101000a900473ffffffffffffffffffffffffffffffffffffffff1681565b60016020528060005260406000206000915090505481565b600061ffff82169050919050565b611dc881611db1565b82525050565b6000602082019050611de36000830184611dbf565b92915050565b600080fd5b600080fd5b6000819050919050565b611e0681611df3565b8114611e1157600080fd5b50565b600081359050611e2381611dfd565b92915050565b600060208284031215611e3f57611e3e611de9565b5b6000611e4d84828501611e14565b91505092915050565b600080fd5b600080fd5b600080fd5b60008083601f840112611e7b57611e7a611e56565b5b8235905067ffffffffffffffff811115611e9857611e97611e5b565b5b602083019150836001820283011115611eb457611eb3611e60565b5b9250929050565b60007fffffffffffffffffffffffffffffffff0000000000000000000000000000000082169050919050565b611ef081611ebb565b8114611efb57600080fd5b50565b600081359050611f0d81611ee7565b92915050565b600080600080600060808688031215611f2f57611f2e611de9565b5b6000611f3d88828901611e14565b955050602086013567ffffffffffffffff811115611f5e57611f5d611dee565b5b611f6a88828901611e65565b94509450506040611f7d88828901611efe565b9250506060611f8e88828901611efe565b9150509295509295909350565b600073ffffffffffffffffffffffffffffffffffffffff82169050919050565b6000611fc682611f9b565b9050919050565b611fd681611fbb565b8114611fe157600080fd5b50565b600081359050611ff381611fcd565b92915050565b60006020828403121561200f5761200e611de9565b5b600061201d84828501611fe4565b91505092915050565b600081519050919050565b600082825260208201905092915050565b6000819050602082019050919050565b61205b81611ebb565b82525050565b600061206d8383612052565b60208301905092915050565b6000602082019050919050565b600061209182612026565b61209b8185612031565b93506120a683612042565b8060005b838110156120d75781516120be8882612061565b97506120c983612079565b9250506001810190506120aa565b5085935050505092915050565b600060208201905081810360008301526120fe8184612086565b905092915050565b6000806040838503121561211d5761211c611de9565b5b600061212b85828601611fe4565b925050602061213c85828601611efe565b9150509250929050565b61214f81611df3565b82525050565b600060208201905061216a6000830184612146565b92915050565b60008060008060008060a0878903121561218d5761218c611de9565b5b600061219b89828a01611fe4565b96505060206121ac89828a01611e14565b955050604087013567ffffffffffffffff8111156121cd576121cc611dee565b5b6121d989828a01611e65565b945094505060606121ec89828a01611efe565b92505060806121fd89828a01611efe565b9150509295509295509295565b600067ffffffffffffffff82169050919050565b6122278161220a565b82525050565b6000602082019050612242600083018461221e565b92915050565b61225181611fbb565b82525050565b61226081611ebb565b82525050565b600060808201905061227b6000830187612248565b6122886020830186612146565b6122956040830185612146565b6122a26060830184612257565b95945050505050565b6000819050919050565b6122be816122ab565b81146122c957600080fd5b50565b6000813590506122db816122b5565b92915050565b6000602082840312156122f7576122f6611de9565b5b6000612305848285016122cc565b91505092915050565b6000806000806060858703121561232857612327611de9565b5b600061233687828801611e14565b945050602085013567ffffffffffffffff81111561235757612356611dee565b5b61236387828801611e65565b9350935050604061237687828801611efe565b91505092959194509250565b60006020820190506123976000830184612248565b92915050565b7f4e487b7100000000000000000000000000000000000000000000000000000000600052601160045260246000fd5b60006123d782611df3565b91506123e283611df3565b92508282039050818111156123fa576123f961239d565b5b92915050565b600081905092915050565b50565b600061241b600083612400565b91506124268261240b565b600082019050919050565b600061243c8261240e565b9150819050919050565b600061245182611df3565b915061245c83611df3565b92508282019050808211156124745761247361239d565b5b92915050565b60006124858261220a565b91506124908361220a565b9250828201905067ffffffffffffffff8111156124b0576124af61239d565b5b92915050565b60006124c182611df3565b91507fffffffffffffffffffffffffffffffffffffffffffffffffffffffffffffffff82036124f3576124f261239d565b5b600182019050919050565b600082825260208201905092915050565b82818337600083830152505050565b6000601f19601f8301169050919050565b600061253b83856124fe565b935061254883858461250f565b6125518361251e565b840190509392505050565b60006080820190506125716000830188612146565b61257e602083018761221e565b818103604083015261259181858761252f565b90506125a06060830184612257565b9695505050505050565b7f4e487b7100000000000000000000000000000000000000000000000000000000600052603260045260246000fd5b7f4e487b7100000000000000000000000000000000000000000000000000000000600052604160045260246000fd5b600060608201905061261d6000830187612146565b818103602083015261263081858761252f565b905061263f6040830184612257565b95945050505050565b7f486f746b6579206d757374206265206e6f6e2d7a65726f000000000000000000600082015250565b600061267e6017836124fe565b915061268982612648565b602082019050919050565b600060208201905081810360008301526126ad81612671565b9050919050565b600060408201905081810360008301526126cf81858761252f565b90506126de6020830184612257565b949350505050565b7f56616c696461746f722061646472657373206d757374206265206e6f6e2d7a6560008201527f726f000000000000000000000000000000000000000000000000000000000000602082015250565b60006127426022836124fe565b915061274d826126e6565b604082019050919050565b6000602082019050818103600083015261277181612735565b9050919050565b7f43616e6e6f74207377697463682076616c696461746f7220776974682070656e60008201527f64696e67207265636c61696d0000000000000000000000000000000000000000602082015250565b60006127d4602c836124fe565b91506127df82612778565b604082019050919050565b60006020820190508181036000830152612803816127c7565b905091905056fea264697066735822122045c77e05124e84015f02465628c2c1b1f16be00cf8335a4ab40b003b48ba89b464736f6c634300081c0033",
  "linkReferences": {},
  "deployedLinkReferences": {}
}