{"contracts/ValueStore.sol":{"ValueStore":{"abi":[{"anonymous":false,"inputs":[{"indexed":false,"internalType":"address","name":"sender","type":"address"},{"indexed":false,"internalType":"string","name":"reason","type":"string"}],"name":"TransactionFailed","type":"event"},{"inputs":[{"internalType":"uint256","name":"_number","type":"uint256"},{"internalType":"string","name":"_text","type":"string"},{"internalType":"bool","name":"_flag","type":"bool"}],"name":"addEntry","outputs":[],"stateMutability":"nonpayable","type":"function"},{"inputs":[{"internalType":"uint256","name":"","type":"uint256"}],"name":"entries","outputs":[{"internalType":"uint256","name":"number","type":"uint256"},{"internalType":"string","name":"text","type":"string"},{"internalType":"bool","name":"flag","type":"bool"}],"stateMutability":"view","type":"function"},{"inputs":[],"name":"getCount","outputs":[{"internalType":"uint256","name":"","type":"uint256"}],"stateMutability":"view","type":"function"},{"inputs":[{"internalType":"uint256","name":"index","type":"uint256"}],"name":"getEntry","outputs":[{"internalType":"uint256","name":"","type":"uint256"},{"internalType":"string","name":"","type":"string"},{"internalType":"bool","name":"","type":"bool"}],"stateMutability":"view","type":"function"},{"inputs":[],"name":"getExecutors","outputs":[{"internalType":"bytes16[]","name":"","type":"bytes16[]"}],"stateMutability":"view","type":"function"},{"inputs":[],"name":"getNumbers","outputs":[{"internalType":"uint256[]","name":"","type":"uint256[]"}],"stateMutability":"view","type":"function"},{"inputs":[{"internalType":"uint256","name":"","type":"uint256"}],"name":"knownExecutorUuids","outputs":[{"internalType":"bytes16","name":"","type":"bytes16"}],"stateMutability":"view","type":"function"},{"inputs":[{"internalType":"uint256","name":"","type":"uint256"}],"name":"numbers","outputs":[{"internalType":"uint256","name":"","type":"uint256"}],"stateMutability":"view","type":"function"}],"evm":{"bytecode":{"linkReferences":{},"object":"6080604052348015600f57600080fd5b506114218061001f6000396000f3fe608060405234801561001057600080fd5b50600436106100885760003560e01c8063cd23533c1161005b578063cd23533c1461012d578063d39fa23314610149578063ef09e78f14610179578063fe0bce2e1461019757610088565b806389f915f61461008d578063a87d942c146100ab578063b30906d4146100c9578063bae78d7b146100fb575b600080fd5b6100956101c7565b6040516100a2919061091e565b60405180910390f35b6100b361021f565b6040516100c0919061094f565b60405180910390f35b6100e360048036038101906100de91906109aa565b61022b565b6040516100f293929190610a82565b60405180910390f35b610115600480360381019061011091906109aa565b6102fa565b60405161012493929190610a82565b60405180910390f35b61014760048036038101906101429190610c21565b61044a565b005b610163600480360381019061015e91906109aa565b61067b565b604051610170919061094f565b60405180910390f35b61018161069f565b60405161018e9190610d7a565b60405180910390f35b6101b160048036038101906101ac91906109aa565b61072d565b6040516101be9190610dab565b60405180910390f35b6060600280548060200260200160405190810160405280929190818152602001828054801561021557602002820191906000526020600020905b815481526020019060010190808311610201575b5050505050905090565b60008080549050905090565b6000818154811061023b57600080fd5b906000526020600020906003020160009150905080600001549080600101805461026490610df5565b80601f016020809104026020016040519081016040528092919081815260200182805461029090610df5565b80156102dd5780601f106102b2576101008083540402835291602001916102dd565b820191906000526020600020905b8154815290600101906020018083116102c057829003601f168201915b5050505050908060020160009054906101000a900460ff16905083565b60006060600080805490508410610346576040517f08c379a000000000000000000000000000000000000000000000000000000000815260040161033d90610e98565b60405180910390fd5b600080858154811061035b5761035a610eb8565b5b90600052602060002090600302016040518060600160405290816000820154815260200160018201805461038e90610df5565b80601f01602080910402602001604051908101604052809291908181526020018280546103ba90610df5565b80156104075780601f106103dc57610100808354040283529160200191610407565b820191906000526020600020905b8154815290600101906020018083116103ea57829003601f168201915b505050505081526020016002820160009054906101000a900460ff1615151515815250509050806000015181602001518260400151935093509350509193909250565b61048b6040518060400160405280601581526020017f616464456e7472792063616c6c656420776974683a0000000000000000000000815250848484610764565b60008303610505577ff4507cb8aaaaa1f7d682cb3b97fd1c843dfb0694c3aa3b2a10d18f8076dce514336040516104c29190610f74565b60405180910390a16040517f08c379a00000000000000000000000000000000000000000000000000000000081526004016104fc90610fa2565b60405180910390fd5b60006040518060600160405280858152602001848152602001831515815250908060018154018082558091505060019003906000526020600020906003020160009091909190915060008201518160000155602082015181600101908161056c919061116e565b5060408201518160020160006101000a81548160ff0219169083151502179055505050600283908060018154018082558091505060019003906000526020600020016000909190919091505560016040516020016105c9906112bd565b6040516020818303038152906040526105e190611302565b90806001815401808255809150506001900390600052602060002090600291828204019190066010029091909190916101000a8154816fffffffffffffffffffffffffffffffff021916908360801c02179055506106766040518060400160405280601c81526020017f616464456e7472792063616c6c2066696e697368656420776974683a00000000815250848484610764565b505050565b6002818154811061068b57600080fd5b906000526020600020016000915090505481565b6060600180548060200260200160405190810160405280929190818152602001828054801561072357602002820191906000526020600020906000905b82829054906101000a900460801b6fffffffffffffffffffffffffffffffff191681526020019060100190602082600f010492830192600103820291508084116106dc5790505b5050505050905090565b6001818154811061073d57600080fd5b9060005260206000209060029182820401919006601002915054906101000a900460801b81565b6108008484848460405160240161077e9493929190611369565b6040516020818303038152906040527f7d24491d000000000000000000000000000000000000000000000000000000007bffffffffffffffffffffffffffffffffffffffffffffffffffffffff19166020820180517bffffffffffffffffffffffffffffffffffffffffffffffffffffffff8381831617835250505050610806565b50505050565b61081d81610815610820610841565b63ffffffff16565b50565b60006a636f6e736f6c652e6c6f679050600080835160208501845afa505050565b61084c819050919050565b6108546113bc565b565b600081519050919050565b600082825260208201905092915050565b6000819050602082019050919050565b6000819050919050565b61089581610882565b82525050565b60006108a7838361088c565b60208301905092915050565b6000602082019050919050565b60006108cb82610856565b6108d58185610861565b93506108e083610872565b8060005b838110156109115781516108f8888261089b565b9750610903836108b3565b9250506001810190506108e4565b5085935050505092915050565b6000602082019050818103600083015261093881846108c0565b905092915050565b61094981610882565b82525050565b60006020820190506109646000830184610940565b92915050565b6000604051905090565b600080fd5b600080fd5b61098781610882565b811461099257600080fd5b50565b6000813590506109a48161097e565b92915050565b6000602082840312156109c0576109bf610974565b5b60006109ce84828501610995565b91505092915050565b600081519050919050565b600082825260208201905092915050565b60005b83811015610a115780820151818401526020810190506109f6565b60008484015250505050565b6000601f19601f8301169050919050565b6000610a39826109d7565b610a4381856109e2565b9350610a538185602086016109f3565b610a5c81610a1d565b840191505092915050565b60008115159050919050565b610a7c81610a67565b82525050565b6000606082019050610a976000830186610940565b8181036020830152610aa98185610a2e565b9050610ab86040830184610a73565b949350505050565b600080fd5b600080fd5b7f4e487b7100000000000000000000000000000000000000000000000000000000600052604160045260246000fd5b610b0282610a1d565b810181811067ffffffffffffffff82111715610b2157610b20610aca565b5b80604052505050565b6000610b3461096a565b9050610b408282610af9565b919050565b600067ffffffffffffffff821115610b6057610b5f610aca565b5b610b6982610a1d565b9050602081019050919050565b82818337600083830152505050565b6000610b98610b9384610b45565b610b2a565b905082815260208101848484011115610bb457610bb3610ac5565b5b610bbf848285610b76565b509392505050565b600082601f830112610bdc57610bdb610ac0565b5b8135610bec848260208601610b85565b91505092915050565b610bfe81610a67565b8114610c0957600080fd5b50565b600081359050610c1b81610bf5565b92915050565b600080600060608486031215610c3a57610c39610974565b5b6000610c4886828701610995565b935050602084013567ffffffffffffffff811115610c6957610c68610979565b5b610c7586828701610bc7565b9250506040610c8686828701610c0c565b9150509250925092565b600081519050919050565b600082825260208201905092915050565b6000819050602082019050919050565b60007fffffffffffffffffffffffffffffffff0000000000000000000000000000000082169050919050565b610cf181610cbc565b82525050565b6000610d038383610ce8565b60208301905092915050565b6000602082019050919050565b6000610d2782610c90565b610d318185610c9b565b9350610d3c83610cac565b8060005b83811015610d6d578151610d548882610cf7565b9750610d5f83610d0f565b925050600181019050610d40565b5085935050505092915050565b60006020820190508181036000830152610d948184610d1c565b905092915050565b610da581610cbc565b82525050565b6000602082019050610dc06000830184610d9c565b92915050565b7f4e487b7100000000000000000000000000000000000000000000000000000000600052602260045260246000fd5b60006002820490506001821680610e0d57607f821691505b602082108103610e2057610e1f610dc6565b5b50919050565b7f496e646578206f7574206f6620626f756e64733a20496e76616c696420696e6460008201527f6578000000000000000000000000000000000000000000000000000000000000602082015250565b6000610e826022836109e2565b9150610e8d82610e26565b604082019050919050565b60006020820190508181036000830152610eb181610e75565b9050919050565b7f4e487b7100000000000000000000000000000000000000000000000000000000600052603260045260246000fd5b600073ffffffffffffffffffffffffffffffffffffffff82169050919050565b6000610f1282610ee7565b9050919050565b610f2281610f07565b82525050565b7f4e756d6265722063616e6e6f74206265207a65726f0000000000000000000000600082015250565b6000610f5e6015836109e2565b9150610f6982610f28565b602082019050919050565b6000604082019050610f896000830184610f19565b8181036020830152610f9a81610f51565b905092915050565b60006020820190508181036000830152610fbb81610f51565b9050919050565b60008190508160005260206000209050919050565b60006020601f8301049050919050565b600082821b905092915050565b6000600883026110247fffffffffffffffffffffffffffffffffffffffffffffffffffffffffffffffff82610fe7565b61102e8683610fe7565b95508019841693508086168417925050509392505050565b6000819050919050565b600061106b61106661106184610882565b611046565b610882565b9050919050565b6000819050919050565b61108583611050565b61109961109182611072565b848454610ff4565b825550505050565b600090565b6110ae6110a1565b6110b981848461107c565b505050565b5b818110156110dd576110d26000826110a6565b6001810190506110bf565b5050565b601f821115611122576110f381610fc2565b6110fc84610fd7565b8101602085101561110b578190505b61111f61111785610fd7565b8301826110be565b50505b505050565b600082821c905092915050565b600061114560001984600802611127565b1980831691505092915050565b600061115e8383611134565b9150826002028217905092915050565b611177826109d7565b67ffffffffffffffff8111156111905761118f610aca565b5b61119a8254610df5565b6111a58282856110e1565b600060209050601f8311600181146111d857600084156111c6578287015190505b6111d08582611152565b865550611238565b601f1984166111e686610fc2565b60005b8281101561120e578489015182556001820191506020850194506020810190506111e9565b8683101561122b5784890151611227601f891682611134565b8355505b6001600288020188555050505b505050505050565b600081905092915050565b7f31363261366361382d636432392d343063382d626532352d316362316163373660008201527f6533616400000000000000000000000000000000000000000000000000000000602082015250565b60006112a7602483611240565b91506112b28261124b565b602482019050919050565b60006112c88261129a565b9150819050919050565b600081519050919050565b6000819050602082019050919050565b60006112f98251610cbc565b80915050919050565b600061130d826112d2565b82611317846112dd565b9050611322816112ed565b925060108210156113625761135d7fffffffffffffffffffffffffffffffff0000000000000000000000000000000083601003600802610fe7565b831692505b5050919050565b600060808201905081810360008301526113838187610a2e565b90506113926020830186610940565b81810360408301526113a48185610a2e565b90506113b36060830184610a73565b95945050505050565b7f4e487b7100000000000000000000000000000000000000000000000000000000600052605160045260246000fdfea2646970667358221220cad0ac34e819429bf11d7f1b7699e2dd6494273b33a6517c772b8f7fd10003c564736f6c634300081c0033","opcodes":"PUSH1 0x80 PUSH1 0x40 MSTORE CALLVALUE DUP1 ISZERO PUSH1 0xF JUMPI PUSH1 0x0 DUP1 REVERT JUMPDEST POP PUSH2 0x1421 DUP1 PUSH2 0x1F PUSH1 0x0 CODECOPY PUSH1 0x0 RETURN INVALID PUSH1 0x80 PUSH1 0x40 MSTORE CALLVALUE DUP1 ISZERO PUSH2 0x10 JUMPI PUSH1 0x0 DUP1 REVERT JUMPDEST POP PUSH1 0x4 CALLDATASIZE LT PUSH2 0x88 JUMPI PUSH1 0x0 CALLDATALOAD PUSH1 0xE0 SHR DUP1 PUSH4 0xCD23533C GT PUSH2 0x5B JUMPI DUP1 PUSH4 0xCD23533C EQ PUSH2 0x12D JUMPI DUP1 PUSH4 0xD39FA233 EQ PUSH2 0x149 JUMPI DUP1 PUSH4 0xEF09E78F EQ PUSH2 0x179 JUMPI DUP1 PUSH4 0xFE0BCE2E EQ PUSH2 0x197 JUMPI PUSH2 0x88 JUMP JUMPDEST DUP1 PUSH4 0x89F915F6 EQ PUSH2 0x8D JUMPI DUP1 PUSH4 0xA87D942C EQ PUSH2 0xAB JUMPI DUP1 PUSH4 0xB30906D4 EQ PUSH2 0xC9 JUMPI DUP1 PUSH4 0xBAE78D7B EQ PUSH2 0xFB JUMPI JUMPDEST PUSH1 0x0 DUP1 REVERT JUMPDEST PUSH2 0x95 PUSH2 0x1C7 JUMP JUMPDEST PUSH1 0x40 MLOAD PUSH2 0xA2 SWAP2 SWAP1 PUSH2 0x91E JUMP JUMPDEST PUSH1 0x40 MLOAD DUP1 SWAP2 SUB SWAP1 RETURN JUMPDEST PUSH2 0xB3 PUSH2 0x21F JUMP JUMPDEST PUSH1 0x40 MLOAD PUSH2 0xC0 SWAP2 SWAP1 PUSH2 0x94F JUMP JUMPDEST PUSH1 0x40 MLOAD DUP1 SWAP2 SUB SWAP1 RETURN JUMPDEST PUSH2 0xE3 PUSH1 0x4 DUP1 CALLDATASIZE SUB DUP2 ADD SWAP1 PUSH2 0xDE SWAP2 SWAP1 PUSH2 0x9AA JUMP JUMPDEST PUSH2 0x22B JUMP JUMPDEST PUSH1 0x40 MLOAD PUSH2 0xF2 SWAP4 SWAP3 SWAP2 SWAP1 PUSH2 0xA82 JUMP JUMPDEST PUSH1 0x40 MLOAD DUP1 SWAP2 SUB SWAP1 RETURN JUMPDEST PUSH2 0x115 PUSH1 0x4 DUP1 CALLDATASIZE SUB DUP2 ADD SWAP1 PUSH2 0x110 SWAP2 SWAP1 PUSH2 0x9AA JUMP JUMPDEST PUSH2 0x2FA JUMP JUMPDEST PUSH1 0x40 MLOAD PUSH2 0x124 SWAP4 SWAP3 SWAP2 SWAP1 PUSH2 0xA82 JUMP JUMPDEST PUSH1 0x40 MLOAD DUP1 SWAP2 SUB SWAP1 RETURN JUMPDEST PUSH2 0x147 PUSH1 0x4 DUP1 CALLDATASIZE SUB DUP2 ADD SWAP1 PUSH2 0x142 SWAP2 SWAP1 PUSH2 0xC21 JUMP JUMPDEST PUSH2 0x44A JUMP JUMPDEST STOP JUMPDEST PUSH2 0x163 PUSH1 0x4 DUP1 CALLDATASIZE SUB DUP2 ADD SWAP1 PUSH2 0x15E SWAP2 SWAP1 PUSH2 0x9AA JUMP JUMPDEST PUSH2 0x67B JUMP JUMPDEST PUSH1 0x40 MLOAD PUSH2 0x170 SWAP2 SWAP1 PUSH2 0x94F JUMP JUMPDEST PUSH1 0x40 MLOAD DUP1 SWAP2 SUB SWAP1 RETURN JUMPDEST PUSH2 0x181 PUSH2 0x69F JUMP JUMPDEST PUSH1 0x40 MLOAD PUSH2 0x18E SWAP2 SWAP1 PUSH2 0xD7A JUMP JUMPDEST PUSH1 0x40 MLOAD DUP1 SWAP2 SUB SWAP1 RETURN JUMPDEST PUSH2 0x1B1 PUSH1 0x4 DUP1 CALLDATASIZE SUB DUP2 ADD SWAP1 PUSH2 0x1AC SWAP2 SWAP1 PUSH2 0x9AA JUMP JUMPDEST PUSH2 0x72D JUMP JUMPDEST PUSH1 0x40 MLOAD PUSH2 0x1BE SWAP2 SWAP1 PUSH2 0xDAB JUMP JUMPDEST PUSH1 0x40 MLOAD DUP1 SWAP2 SUB SWAP1 RETURN JUMPDEST PUSH1 0x60 PUSH1 0x2 DUP1 SLOAD DUP1 PUSH1 0x20 MUL PUSH1 0x20 ADD PUSH1 0x40 MLOAD SWAP1 DUP2 ADD PUSH1 0x40 MSTORE DUP1 SWAP3 SWAP2 SWAP1 DUP2 DUP2 MSTORE PUSH1 0x20 ADD DUP3 DUP1 SLOAD DUP1 ISZERO PUSH2 0x215 JUMPI PUSH1 0x20 MUL DUP3 ADD SWAP2 SWAP1 PUSH1 0x0 MSTORE PUSH1 0x20 PUSH1 0x0 KECCAK256 SWAP1 JUMPDEST DUP2 SLOAD DUP2 MSTORE PUSH1 0x20 ADD SWAP1 PUSH1 0x1 ADD SWAP1 DUP1 DUP4 GT PUSH2 0x201 JUMPI JUMPDEST POP POP POP POP POP SWAP1 POP SWAP1 JUMP JUMPDEST PUSH1 0x0 DUP1 DUP1 SLOAD SWAP1 POP SWAP1 POP SWAP1 JUMP JUMPDEST PUSH1 0x0 DUP2 DUP2 SLOAD DUP2 LT PUSH2 0x23B JUMPI PUSH1 0x0 DUP1 REVERT JUMPDEST SWAP1 PUSH1 0x0 MSTORE PUSH1 0x20 PUSH1 0x0 KECCAK256 SWAP1 PUSH1 0x3 MUL ADD PUSH1 0x0 SWAP2 POP SWAP1 POP DUP1 PUSH1 0x0 ADD SLOAD SWAP1 DUP1 PUSH1 0x1 ADD DUP1 SLOAD PUSH2 0x264 SWAP1 PUSH2 0xDF5 JUMP JUMPDEST DUP1 PUSH1 0x1F ADD PUSH1 0x20 DUP1 SWAP2 DIV MUL PUSH1 0x20 ADD PUSH1 0x40 MLOAD SWAP1 DUP2 ADD PUSH1 0x40 MSTORE DUP1 SWAP3 SWAP2 SWAP1 DUP2 DUP2 MSTORE PUSH1 0x20 ADD DUP3 DUP1 SLOAD PUSH2 0x290 SWAP1 PUSH2 0xDF5 JUMP JUMPDEST DUP1 ISZERO PUSH2 0x2DD JUMPI DUP1 PUSH1 0x1F LT PUSH2 0x2B2 JUMPI PUSH2 0x100 DUP1 DUP4 SLOAD DIV MUL DUP4 MSTORE SWAP2 PUSH1 0x20 ADD SWAP2 PUSH2 0x2DD JUMP JUMPDEST DUP3 ADD SWAP2 SWAP1 PUSH1 0x0 MSTORE PUSH1 0x20 PUSH1 0x0 KECCAK256 SWAP1 JUMPDEST DUP2 SLOAD DUP2 MSTORE SWAP1 PUSH1 0x1 ADD SWAP1 PUSH1 0x20 ADD DUP1 DUP4 GT PUSH2 0x2C0 JUMPI DUP3 SWAP1 SUB PUSH1 0x1F AND DUP3 ADD SWAP2 JUMPDEST POP POP POP POP POP SWAP1 DUP1 PUSH1 0x2 ADD PUSH1 0x0 SWAP1 SLOAD SWAP1 PUSH2 0x100 EXP SWAP1 DIV PUSH1 0xFF AND SWAP1 POP DUP4 JUMP JUMPDEST PUSH1 0x0 PUSH1 0x60 PUSH1 0x0 DUP1 DUP1 SLOAD SWAP1 POP DUP5 LT PUSH2 0x346 JUMPI PUSH1 0x40 MLOAD PUSH32 0x8C379A000000000000000000000000000000000000000000000000000000000 DUP2 MSTORE PUSH1 0x4 ADD PUSH2 0x33D SWAP1 PUSH2 0xE98 JUMP JUMPDEST PUSH1 0x40 MLOAD DUP1 SWAP2 SUB SWAP1 REVERT JUMPDEST PUSH1 0x0 DUP1 DUP6 DUP2 SLOAD DUP2 LT PUSH2 0x35B JUMPI PUSH2 0x35A PUSH2 0xEB8 JUMP JUMPDEST JUMPDEST SWAP1 PUSH1 0x0 MSTORE PUSH1 0x20 PUSH1 0x0 KECCAK256 SWAP1 PUSH1 0x3 MUL ADD PUSH1 0x40 MLOAD DUP1 PUSH1 0x60 ADD PUSH1 0x40 MSTORE SWAP1 DUP2 PUSH1 0x0 DUP3 ADD SLOAD DUP2 MSTORE PUSH1 0x20 ADD PUSH1 0x1 DUP3 ADD DUP1 SLOAD PUSH2 0x38E SWAP1 PUSH2 0xDF5 JUMP JUMPDEST DUP1 PUSH1 0x1F ADD PUSH1 0x20 DUP1 SWAP2 DIV MUL PUSH1 0x20 ADD PUSH1 0x40 MLOAD SWAP1 DUP2 ADD PUSH1 0x40 MSTORE DUP1 SWAP3 SWAP2 SWAP1 DUP2 DUP2 MSTORE PUSH1 0x20 ADD DUP3 DUP1 SLOAD PUSH2 0x3BA SWAP1 PUSH2 0xDF5 JUMP JUMPDEST DUP1 ISZERO PUSH2 0x407 JUMPI DUP1 PUSH1 0x1F LT PUSH2 0x3DC JUMPI PUSH2 0x100 DUP1 DUP4 SLOAD DIV MUL DUP4 MSTORE SWAP2 PUSH1 0x20 ADD SWAP2 PUSH2 0x407 JUMP JUMPDEST DUP3 ADD SWAP2 SWAP1 PUSH1 0x0 MSTORE PUSH1 0x20 PUSH1 0x0 KECCAK256 SWAP1 JUMPDEST DUP2 SLOAD DUP2 MSTORE SWAP1 PUSH1 0x1 ADD SWAP1 PUSH1 0x20 ADD DUP1 DUP4 GT PUSH2 0x3EA JUMPI DUP3 SWAP1 SUB PUSH1 0x1F AND DUP3 ADD SWAP2 JUMPDEST POP POP POP POP POP DUP2 MSTORE PUSH1 0x20 ADD PUSH1 0x2 DUP3 ADD PUSH1 0x0 SWAP1 SLOAD SWAP1 PUSH2 0x100 EXP SWAP1 DIV PUSH1 0xFF AND ISZERO ISZERO ISZERO ISZERO DUP2 MSTORE POP POP SWAP1 POP DUP1 PUSH1 0x0 ADD MLOAD DUP2 PUSH1 0x20 ADD MLOAD DUP3 PUSH1 0x40 ADD MLOAD SWAP4 POP SWAP4 POP SWAP4 POP POP SWAP2 SWAP4 SWAP1 SWAP3 POP JUMP JUMPDEST PUSH2 0x48B PUSH1 0x40 MLOAD DUP1 PUSH1 0x40 ADD PUSH1 0x40 MSTORE DUP1 PUSH1 0x15 DUP2 MSTORE PUSH1 0x20 ADD PUSH32 0x616464456E7472792063616C6C656420776974683A0000000000000000000000 DUP2 MSTORE POP DUP5 DUP5 DUP5 PUSH2 0x764 JUMP JUMPDEST PUSH1 0x0 DUP4 SUB PUSH2 0x505 JUMPI PUSH32 0xF4507CB8AAAAA1F7D682CB3B97FD1C843DFB0694C3AA3B2A10D18F8076DCE514 CALLER PUSH1 0x40 MLOAD PUSH2 0x4C2 SWAP2 SWAP1 PUSH2 0xF74 JUMP JUMPDEST PUSH1 0x40 MLOAD DUP1 SWAP2 SUB SWAP1 LOG1 PUSH1 0x40 MLOAD PUSH32 0x8C379A000000000000000000000000000000000000000000000000000000000 DUP2 MSTORE PUSH1 0x4 ADD PUSH2 0x4FC SWAP1 PUSH2 0xFA2 JUMP JUMPDEST PUSH1 0x40 MLOAD DUP1 SWAP2 SUB SWAP1 REVERT JUMPDEST PUSH1 0x0 PUSH1 0x40 MLOAD DUP1 PUSH1 0x60 ADD PUSH1 0x40 MSTORE DUP1 DUP6 DUP2 MSTORE PUSH1 0x20 ADD DUP5 DUP2 MSTORE PUSH1 0x20 ADD DUP4 ISZERO ISZERO DUP2 MSTORE POP SWAP1 DUP1 PUSH1 0x1 DUP2 SLOAD ADD DUP1 DUP3 SSTORE DUP1 SWAP2 POP POP PUSH1 0x1 SWAP1 SUB SWAP1 PUSH1 0x0 MSTORE PUSH1 0x20 PUSH1 0x0 KECCAK256 SWAP1 PUSH1 0x3 MUL ADD PUSH1 0x0 SWAP1 SWAP2 SWAP1 SWAP2 SWAP1 SWAP2 POP PUSH1 0x0 DUP3 ADD MLOAD DUP2 PUSH1 0x0 ADD SSTORE PUSH1 0x20 DUP3 ADD MLOAD DUP2 PUSH1 0x1 ADD SWAP1 DUP2 PUSH2 0x56C SWAP2 SWAP1 PUSH2 0x116E JUMP JUMPDEST POP PUSH1 0x40 DUP3 ADD MLOAD DUP2 PUSH1 0x2 ADD PUSH1 0x0 PUSH2 0x100 EXP DUP2 SLOAD DUP2 PUSH1 0xFF MUL NOT AND SWAP1 DUP4 ISZERO ISZERO MUL OR SWAP1 SSTORE POP POP POP PUSH1 0x2 DUP4 SWAP1 DUP1 PUSH1 0x1 DUP2 SLOAD ADD DUP1 DUP3 SSTORE DUP1 SWAP2 POP POP PUSH1 0x1 SWAP1 SUB SWAP1 PUSH1 0x0 MSTORE PUSH1 0x20 PUSH1 0x0 KECCAK256 ADD PUSH1 0x0 SWAP1 SWAP2 SWAP1 SWAP2 SWAP1 SWAP2 POP SSTORE PUSH1 0x1 PUSH1 0x40 MLOAD PUSH1 0x20 ADD PUSH2 0x5C9 SWAP1 PUSH2 0x12BD JUMP JUMPDEST PUSH1 0x40 MLOAD PUSH1 0x20 DUP2 DUP4 SUB SUB DUP2 MSTORE SWAP1 PUSH1 0x40 MSTORE PUSH2 0x5E1 SWAP1 PUSH2 0x1302 JUMP JUMPDEST SWAP1 DUP1 PUSH1 0x1 DUP2 SLOAD ADD DUP1 DUP3 SSTORE DUP1 SWAP2 POP POP PUSH1 0x1 SWAP1 SUB SWAP1 PUSH1 0x0 MSTORE PUSH1 0x20 PUSH1 0x0 KECCAK256 SWAP1 PUSH1 0x2 SWAP2 DUP3 DUP3 DIV ADD SWAP2 SWAP1 MOD PUSH1 0x10 MUL SWAP1 SWAP2 SWAP1 SWAP2 SWAP1 SWAP2 PUSH2 0x100 EXP DUP2 SLOAD DUP2 PUSH16 0xFFFFFFFFFFFFFFFFFFFFFFFFFFFFFFFF MUL NOT AND SWAP1 DUP4 PUSH1 0x80 SHR MUL OR SWAP1 SSTORE POP PUSH2 0x676 PUSH1 0x40 MLOAD DUP1 PUSH1 0x40 ADD PUSH1 0x40 MSTORE DUP1 PUSH1 0x1C DUP2 MSTORE PUSH1 0x20 ADD PUSH32 0x616464456E7472792063616C6C2066696E697368656420776974683A00000000 DUP2 MSTORE POP DUP5 DUP5 DUP5 PUSH2 0x764 JUMP JUMPDEST POP POP POP JUMP JUMPDEST PUSH1 0x2 DUP2 DUP2 SLOAD DUP2 LT PUSH2 0x68B JUMPI PUSH1 0x0 DUP1 REVERT JUMPDEST SWAP1 PUSH1 0x0 MSTORE PUSH1 0x20 PUSH1 0x0 KECCAK256 ADD PUSH1 0x0 SWAP2 POP SWAP1 POP SLOAD DUP2 JUMP JUMPDEST PUSH1 0x60 PUSH1 0x1 DUP1 SLOAD DUP1 PUSH1 0x20 MUL PUSH1 0x20 ADD PUSH1 0x40 MLOAD SWAP1 DUP2 ADD PUSH1 0x40 MSTORE DUP1 SWAP3 SWAP2 SWAP1 DUP2 DUP2 MSTORE PUSH1 0x20 ADD DUP3 DUP1 SLOAD DUP1 ISZERO PUSH2 0x723 JUMPI PUSH1 0x20 MUL DUP3 ADD SWAP2 SWAP1 PUSH1 0x0 MSTORE PUSH1 0x20 PUSH1 0x0 KECCAK256 SWAP1 PUSH1 0x0 SWAP1 JUMPDEST DUP3 DUP3 SWAP1 SLOAD SWAP1 PUSH2 0x100 EXP SWAP1 DIV PUSH1 0x80 SHL PUSH16 0xFFFFFFFFFFFFFFFFFFFFFFFFFFFFFFFF NOT AND DUP2 MSTORE PUSH1 0x20 ADD SWAP1 PUSH1 0x10 ADD SWAP1 PUSH1 0x20 DUP3 PUSH1 0xF ADD DIV SWAP3 DUP4 ADD SWAP3 PUSH1 0x1 SUB DUP3 MUL SWAP2 POP DUP1 DUP5 GT PUSH2 0x6DC JUMPI SWAP1 POP JUMPDEST POP POP POP POP POP SWAP1 POP SWAP1 JUMP JUMPDEST PUSH1 0x1 DUP2 DUP2 SLOAD DUP2 LT PUSH2 0x73D JUMPI PUSH1 0x0 DUP1 REVERT JUMPDEST SWAP1 PUSH1 0x0 MSTORE PUSH1 0x20 PUSH1 0x0 KECCAK256 SWAP1 PUSH1 0x2 SWAP2 DUP3 DUP3 DIV ADD SWAP2 SWAP1 MOD PUSH1 0x10 MUL SWAP2 POP SLOAD SWAP1 PUSH2 0x100 EXP SWAP1 DIV PUSH1 0x80 SHL DUP2 JUMP JUMPDEST PUSH2 0x800 DUP5 DUP5 DUP5 DUP5 PUSH1 0x40 MLOAD PUSH1 0x24 ADD PUSH2 0x77E SWAP5 SWAP4 SWAP3 SWAP2 SWAP1 PUSH2 0x1369 JUMP JUMPDEST PUSH1 0x40 MLOAD PUSH1 0x20 DUP2 DUP4 SUB SUB DUP2 MSTORE SWAP1 PUSH1 0x40 MSTORE PUSH32 0x7D24491D00000000000000000000000000000000000000000000000000000000 PUSH28 0xFFFFFFFFFFFFFFFFFFFFFFFFFFFFFFFFFFFFFFFFFFFFFFFFFFFFFFFF NOT AND PUSH1 0x20 DUP3 ADD DUP1 MLOAD PUSH28 0xFFFFFFFFFFFFFFFFFFFFFFFFFFFFFFFFFFFFFFFFFFFFFFFFFFFFFFFF DUP4 DUP2 DUP4 AND OR DUP4 MSTORE POP POP POP POP PUSH2 0x806 JUMP JUMPDEST POP POP POP POP JUMP JUMPDEST PUSH2 0x81D DUP2 PUSH2 0x815 PUSH2 0x820 PUSH2 0x841 JUMP JUMPDEST PUSH4 0xFFFFFFFF AND JUMP JUMPDEST POP JUMP JUMPDEST PUSH1 0x0 PUSH11 0x636F6E736F6C652E6C6F67 SWAP1 POP PUSH1 0x0 DUP1 DUP4 MLOAD PUSH1 0x20 DUP6 ADD DUP5 GAS STATICCALL POP POP POP JUMP JUMPDEST PUSH2 0x84C DUP2 SWAP1 POP SWAP2 SWAP1 POP JUMP JUMPDEST PUSH2 0x854 PUSH2 0x13BC JUMP JUMPDEST JUMP JUMPDEST PUSH1 0x0 DUP2 MLOAD SWAP1 POP SWAP2 SWAP1 POP JUMP JUMPDEST PUSH1 0x0 DUP3 DUP3 MSTORE PUSH1 0x20 DUP3 ADD SWAP1 POP SWAP3 SWAP2 POP POP JUMP JUMPDEST PUSH1 0x0 DUP2 SWAP1 POP PUSH1 0x20 DUP3 ADD SWAP1 POP SWAP2 SWAP1 POP JUMP JUMPDEST PUSH1 0x0 DUP2 SWAP1 POP SWAP2 SWAP1 POP JUMP JUMPDEST PUSH2 0x895 DUP2 PUSH2 0x882 JUMP JUMPDEST DUP3 MSTORE POP POP JUMP JUMPDEST PUSH1 0x0 PUSH2 0x8A7 DUP4 DUP4 PUSH2 0x88C JUMP JUMPDEST PUSH1 0x20 DUP4 ADD SWAP1 POP SWAP3 SWAP2 POP POP JUMP JUMPDEST PUSH1 0x0 PUSH1 0x20 DUP3 ADD SWAP1 POP SWAP2 SWAP1 POP JUMP JUMPDEST PUSH1 0x0 PUSH2 0x8CB DUP3 PUSH2 0x856 JUMP JUMPDEST PUSH2 0x8D5 DUP2 DUP6 PUSH2 0x861 JUMP JUMPDEST SWAP4 POP PUSH2 0x8E0 DUP4 PUSH2 0x872 JUMP JUMPDEST DUP1 PUSH1 0x0 JUMPDEST DUP4 DUP2 LT ISZERO PUSH2 0x911 JUMPI DUP2 MLOAD PUSH2 0x8F8 DUP9 DUP3 PUSH2 0x89B JUMP JUMPDEST SWAP8 POP PUSH2 0x903 DUP4 PUSH2 0x8B3 JUMP JUMPDEST SWAP3 POP POP PUSH1 0x1 DUP2 ADD SWAP1 POP PUSH2 0x8E4 JUMP JUMPDEST POP DUP6 SWAP4 POP POP POP POP SWAP3 SWAP2 POP POP JUMP JUMPDEST PUSH1 0x0 PUSH1 0x20 DUP3 ADD SWAP1 POP DUP2 DUP2 SUB PUSH1 0x0 DUP4 ADD MSTORE PUSH2 0x938 DUP2 DUP5 PUSH2 0x8C0 JUMP JUMPDEST SWAP1 POP SWAP3 SWAP2 POP POP JUMP JUMPDEST PUSH2 0x949 DUP2 PUSH2 0x882 JUMP JUMPDEST DUP3 MSTORE POP POP JUMP JUMPDEST PUSH1 0x0 PUSH1 0x20 DUP3 ADD SWAP1 POP PUSH2 0x964 PUSH1 0x0 DUP4 ADD DUP5 PUSH2 0x940 JUMP JUMPDEST SWAP3 SWAP2 POP POP JUMP JUMPDEST PUSH1 0x0 PUSH1 0x40 MLOAD SWAP1 POP SWAP1 JUMP JUMPDEST PUSH1 0x0 DUP1 REVERT JUMPDEST PUSH1 0x0 DUP1 REVERT JUMPDEST PUSH2 0x987 DUP2 PUSH2 0x882 JUMP JUMPDEST DUP2 EQ PUSH2 0x992 JUMPI PUSH1 0x0 DUP1 REVERT JUMPDEST POP JUMP JUMPDEST PUSH1 0x0 DUP2 CALLDATALOAD SWAP1 POP PUSH2 0x9A4 DUP2 PUSH2 0x97E JUMP JUMPDEST SWAP3 SWAP2 POP POP JUMP JUMPDEST PUSH1 0x0 PUSH1 0x20 DUP3 DUP5 SUB SLT ISZERO PUSH2 0x9C0 JUMPI PUSH2 0x9BF PUSH2 0x974 JUMP JUMPDEST JUMPDEST PUSH1 0x0 PUSH2 0x9CE DUP5 DUP3 DUP6 ADD PUSH2 0x995 JUMP JUMPDEST SWAP2 POP POP SWAP3 SWAP2 POP POP JUMP JUMPDEST PUSH1 0x0 DUP2 MLOAD SWAP1 POP SWAP2 SWAP1 POP JUMP JUMPDEST PUSH1 0x0 DUP3 DUP3 MSTORE PUSH1 0x20 DUP3 ADD SWAP1 POP SWAP3 SWAP2 POP POP JUMP JUMPDEST PUSH1 0x0 JUMPDEST DUP4 DUP2 LT ISZERO PUSH2 0xA11 JUMPI DUP1 DUP3 ADD MLOAD DUP2 DUP5 ADD MSTORE PUSH1 0x20 DUP2 ADD SWAP1 POP PUSH2 0x9F6 JUMP JUMPDEST PUSH1 0x0 DUP5 DUP5 ADD MSTORE POP POP POP POP JUMP JUMPDEST PUSH1 0x0 PUSH1 0x1F NOT PUSH1 0x1F DUP4 ADD AND SWAP1 POP SWAP2 SWAP1 POP JUMP JUMPDEST PUSH1 0x0 PUSH2 0xA39 DUP3 PUSH2 0x9D7 JUMP JUMPDEST PUSH2 0xA43 DUP2 DUP6 PUSH2 0x9E2 JUMP JUMPDEST SWAP4 POP PUSH2 0xA53 DUP2 DUP6 PUSH1 0x20 DUP7 ADD PUSH2 0x9F3 JUMP JUMPDEST PUSH2 0xA5C DUP2 PUSH2 0xA1D JUMP JUMPDEST DUP5 ADD SWAP2 POP POP SWAP3 SWAP2 POP POP JUMP JUMPDEST PUSH1 0x0 DUP2 ISZERO ISZERO SWAP1 POP SWAP2 SWAP1 POP JUMP JUMPDEST PUSH2 0xA7C DUP2 PUSH2 0xA67 JUMP JUMPDEST DUP3 MSTORE POP POP JUMP JUMPDEST PUSH1 0x0 PUSH1 0x60 DUP3 ADD SWAP1 POP PUSH2 0xA97 PUSH1 0x0 DUP4 ADD DUP7 PUSH2 0x940 JUMP JUMPDEST DUP2 DUP2 SUB PUSH1 0x20 DUP4 ADD MSTORE PUSH2 0xAA9 DUP2 DUP6 PUSH2 0xA2E JUMP JUMPDEST SWAP1 POP PUSH2 0xAB8 PUSH1 0x40 DUP4 ADD DUP5 PUSH2 0xA73 JUMP JUMPDEST SWAP5 SWAP4 POP POP POP POP JUMP JUMPDEST PUSH1 0x0 DUP1 REVERT JUMPDEST PUSH1 0x0 DUP1 REVERT JUMPDEST PUSH32 0x4E487B7100000000000000000000000000000000000000000000000000000000 PUSH1 0x0 MSTORE PUSH1 0x41 PUSH1 0x4 MSTORE PUSH1 0x24 PUSH1 0x0 REVERT JUMPDEST PUSH2 0xB02 DUP3 PUSH2 0xA1D JUMP JUMPDEST DUP2 ADD DUP2 DUP2 LT PUSH8 0xFFFFFFFFFFFFFFFF DUP3 GT OR ISZERO PUSH2 0xB21 JUMPI PUSH2 0xB20 PUSH2 0xACA JUMP JUMPDEST JUMPDEST DUP1 PUSH1 0x40 MSTORE POP POP POP JUMP JUMPDEST PUSH1 0x0 PUSH2 0xB34 PUSH2 0x96A JUMP JUMPDEST SWAP1 POP PUSH2 0xB40 DUP3 DUP3 PUSH2 0xAF9 JUMP JUMPDEST SWAP2 SWAP1 POP JUMP JUMPDEST PUSH1 0x0 PUSH8 0xFFFFFFFFFFFFFFFF DUP3 GT ISZERO PUSH2 0xB60 JUMPI PUSH2 0xB5F PUSH2 0xACA JUMP JUMPDEST JUMPDEST PUSH2 0xB69 DUP3 PUSH2 0xA1D JUMP JUMPDEST SWAP1 POP PUSH1 0x20 DUP2 ADD SWAP1 POP SWAP2 SWAP1 POP JUMP JUMPDEST DUP3 DUP2 DUP4 CALLDATACOPY PUSH1 0x0 DUP4 DUP4 ADD MSTORE POP POP POP JUMP JUMPDEST PUSH1 0x0 PUSH2 0xB98 PUSH2 0xB93 DUP5 PUSH2 0xB45 JUMP JUMPDEST PUSH2 0xB2A JUMP JUMPDEST SWAP1 POP DUP3 DUP2 MSTORE PUSH1 0x20 DUP2 ADD DUP5 DUP5 DUP5 ADD GT ISZERO PUSH2 0xBB4 JUMPI PUSH2 0xBB3 PUSH2 0xAC5 JUMP JUMPDEST JUMPDEST PUSH2 0xBBF DUP5 DUP3 DUP6 PUSH2 0xB76 JUMP JUMPDEST POP SWAP4 SWAP3 POP POP POP JUMP JUMPDEST PUSH1 0x0 DUP3 PUSH1 0x1F DUP4 ADD SLT PUSH2 0xBDC JUMPI PUSH2 0xBDB PUSH2 0xAC0 JUMP JUMPDEST JUMPDEST DUP2 CALLDATALOAD PUSH2 0xBEC DUP5 DUP3 PUSH1 0x20 DUP7 ADD PUSH2 0xB85 JUMP JUMPDEST SWAP2 POP POP SWAP3 SWAP2 POP POP JUMP JUMPDEST PUSH2 0xBFE DUP2 PUSH2 0xA67 JUMP JUMPDEST DUP2 EQ PUSH2 0xC09 JUMPI PUSH1 0x0 DUP1 REVERT JUMPDEST POP JUMP JUMPDEST PUSH1 0x0 DUP2 CALLDATALOAD SWAP1 POP PUSH2 0xC1B DUP2 PUSH2 0xBF5 JUMP JUMPDEST SWAP3 SWAP2 POP POP JUMP JUMPDEST PUSH1 0x0 DUP1 PUSH1 0x0 PUSH1 0x60 DUP5 DUP7 SUB SLT ISZERO PUSH2 0xC3A JUMPI PUSH2 0xC39 PUSH2 0x974 JUMP JUMPDEST JUMPDEST PUSH1 0x0 PUSH2 0xC48 DUP7 DUP3 DUP8 ADD PUSH2 0x995 JUMP JUMPDEST SWAP4 POP POP PUSH1 0x20 DUP5 ADD CALLDATALOAD PUSH8 0xFFFFFFFFFFFFFFFF DUP2 GT ISZERO PUSH2 0xC69 JUMPI PUSH2 0xC68 PUSH2 0x979 JUMP JUMPDEST JUMPDEST PUSH2 0xC75 DUP7 DUP3 DUP8 ADD PUSH2 0xBC7 JUMP JUMPDEST SWAP3 POP POP PUSH1 0x40 PUSH2 0xC86 DUP7 DUP3 DUP8 ADD PUSH2 0xC0C JUMP JUMPDEST SWAP2 POP POP SWAP3 POP SWAP3 POP SWAP3 JUMP JUMPDEST PUSH1 0x0 DUP2 MLOAD SWAP1 POP SWAP2 SWAP1 POP JUMP JUMPDEST PUSH1 0x0 DUP3 DUP3 MSTORE PUSH1 0x20 DUP3 ADD SWAP1 POP SWAP3 SWAP2 POP POP JUMP JUMPDEST PUSH1 0x0 DUP2 SWAP1 POP PUSH1 0x20 DUP3 ADD SWAP1 POP SWAP2 SWAP1 POP JUMP JUMPDEST PUSH1 0x0 PUSH32 0xFFFFFFFFFFFFFFFFFFFFFFFFFFFFFFFF00000000000000000000000000000000 DUP3 AND SWAP1 POP SWAP2 SWAP1 POP JUMP JUMPDEST PUSH2 0xCF1 DUP2 PUSH2 0xCBC JUMP JUMPDEST DUP3 MSTORE POP POP JUMP JUMPDEST PUSH1 0x0 PUSH2 0xD03 DUP4 DUP4 PUSH2 0xCE8 JUMP JUMPDEST PUSH1 0x20 DUP4 ADD SWAP1 POP SWAP3 SWAP2 POP POP JUMP JUMPDEST PUSH1 0x0 PUSH1 0x20 DUP3 ADD SWAP1 POP SWAP2 SWAP1 POP JUMP JUMPDEST PUSH1 0x0 PUSH2 0xD27 DUP3 PUSH2 0xC90 JUMP JUMPDEST PUSH2 0xD31 DUP2 DUP6 PUSH2 0xC9B JUMP JUMPDEST SWAP4 POP PUSH2 0xD3C DUP4 PUSH2 0xCAC JUMP JUMPDEST DUP1 PUSH1 0x0 JUMPDEST DUP4 DUP2 LT ISZERO PUSH2 0xD6D JUMPI DUP2 MLOAD PUSH2 0xD54 DUP9 DUP3 PUSH2 0xCF7 JUMP JUMPDEST SWAP8 POP PUSH2 0xD5F DUP4 PUSH2 0xD0F JUMP JUMPDEST SWAP3 POP POP PUSH1 0x1 DUP2 ADD SWAP1 POP PUSH2 0xD40 JUMP JUMPDEST POP DUP6 SWAP4 POP POP POP POP SWAP3 SWAP2 POP POP JUMP JUMPDEST PUSH1 0x0 PUSH1 0x20 DUP3 ADD SWAP1 POP DUP2 DUP2 SUB PUSH1 0x0 DUP4 ADD MSTORE PUSH2 0xD94 DUP2 DUP5 PUSH2 0xD1C JUMP JUMPDEST SWAP1 POP SWAP3 SWAP2 POP POP JUMP JUMPDEST PUSH2 0xDA5 DUP2 PUSH2 0xCBC JUMP JUMPDEST DUP3 MSTORE POP POP JUMP JUMPDEST PUSH1 0x0 PUSH1 0x20 DUP3 ADD SWAP1 POP PUSH2 0xDC0 PUSH1 0x0 DUP4 ADD DUP5 PUSH2 0xD9C JUMP JUMPDEST SWAP3 SWAP2 POP POP JUMP JUMPDEST PUSH32 0x4E487B7100000000000000000000000000000000000000000000000000000000 PUSH1 0x0 MSTORE PUSH1 0x22 PUSH1 0x4 MSTORE PUSH1 0x24 PUSH1 0x0 REVERT JUMPDEST PUSH1 0x0 PUSH1 0x2 DUP3 DIV SWAP1 POP PUSH1 0x1 DUP3 AND DUP1 PUSH2 0xE0D JUMPI PUSH1 0x7F DUP3 AND SWAP2 POP JUMPDEST PUSH1 0x20 DUP3 LT DUP2 SUB PUSH2 0xE20 JUMPI PUSH2 0xE1F PUSH2 0xDC6 JUMP JUMPDEST JUMPDEST POP SWAP2 SWAP1 POP JUMP JUMPDEST PUSH32 0x496E646578206F7574206F6620626F756E64733A20496E76616C696420696E64 PUSH1 0x0 DUP3 ADD MSTORE PUSH32 0x6578000000000000000000000000000000000000000000000000000000000000 PUSH1 0x20 DUP3 ADD MSTORE POP JUMP JUMPDEST PUSH1 0x0 PUSH2 0xE82 PUSH1 0x22 DUP4 PUSH2 0x9E2 JUMP JUMPDEST SWAP2 POP PUSH2 0xE8D DUP3 PUSH2 0xE26 JUMP JUMPDEST PUSH1 0x40 DUP3 ADD SWAP1 POP SWAP2 SWAP1 POP JUMP JUMPDEST PUSH1 0x0 PUSH1 0x20 DUP3 ADD SWAP1 POP DUP2 DUP2 SUB PUSH1 0x0 DUP4 ADD MSTORE PUSH2 0xEB1 DUP2 PUSH2 0xE75 JUMP JUMPDEST SWAP1 POP SWAP2 SWAP1 POP JUMP JUMPDEST PUSH32 0x4E487B7100000000000000000000000000000000000000000000000000000000 PUSH1 0x0 MSTORE PUSH1 0x32 PUSH1 0x4 MSTORE PUSH1 0x24 PUSH1 0x0 REVERT JUMPDEST PUSH1 0x0 PUSH20 0xFFFFFFFFFFFFFFFFFFFFFFFFFFFFFFFFFFFFFFFF DUP3 AND SWAP1 POP SWAP2 SWAP1 POP JUMP JUMPDEST PUSH1 0x0 PUSH2 0xF12 DUP3 PUSH2 0xEE7 JUMP JUMPDEST SWAP1 POP SWAP2 SWAP1 POP JUMP JUMPDEST PUSH2 0xF22 DUP2 PUSH2 0xF07 JUMP JUMPDEST DUP3 MSTORE POP POP JUMP JUMPDEST PUSH32 0x4E756D6265722063616E6E6F74206265207A65726F0000000000000000000000 PUSH1 0x0 DUP3 ADD MSTORE POP JUMP JUMPDEST PUSH1 0x0 PUSH2 0xF5E PUSH1 0x15 DUP4 PUSH2 0x9E2 JUMP JUMPDEST SWAP2 POP PUSH2 0xF69 DUP3 PUSH2 0xF28 JUMP JUMPDEST PUSH1 0x20 DUP3 ADD SWAP1 POP SWAP2 SWAP1 POP JUMP JUMPDEST PUSH1 0x0 PUSH1 0x40 DUP3 ADD SWAP1 POP PUSH2 0xF89 PUSH1 0x0 DUP4 ADD DUP5 PUSH2 0xF19 JUMP JUMPDEST DUP2 DUP2 SUB PUSH1 0x20 DUP4 ADD MSTORE PUSH2 0xF9A DUP2 PUSH2 0xF51 JUMP JUMPDEST SWAP1 POP SWAP3 SWAP2 POP POP JUMP JUMPDEST PUSH1 0x0 PUSH1 0x20 DUP3 ADD SWAP1 POP DUP2 DUP2 SUB PUSH1 0x0 DUP4 ADD MSTORE PUSH2 0xFBB DUP2 PUSH2 0xF51 JUMP JUMPDEST SWAP1 POP SWAP2 SWAP1 POP JUMP JUMPDEST PUSH1 0x0 DUP2 SWAP1 POP DUP2 PUSH1 0x0 MSTORE PUSH1 0x20 PUSH1 0x0 KECCAK256 SWAP1 POP SWAP2 SWAP1 POP JUMP JUMPDEST PUSH1 0x0 PUSH1 0x20 PUSH1 0x1F DUP4 ADD DIV SWAP1 POP SWAP2 SWAP1 POP JUMP JUMPDEST PUSH1 0x0 DUP3 DUP3 SHL SWAP1 POP SWAP3 SWAP2 POP POP JUMP JUMPDEST PUSH1 0x0 PUSH1 0x8 DUP4 MUL PUSH2 0x1024 PUSH32 0xFFFFFFFFFFFFFFFFFFFFFFFFFFFFFFFFFFFFFFFFFFFFFFFFFFFFFFFFFFFFFFFF DUP3 PUSH2 0xFE7 JUMP JUMPDEST PUSH2 0x102E DUP7 DUP4 PUSH2 0xFE7 JUMP JUMPDEST SWAP6 POP DUP1 NOT DUP5 AND SWAP4 POP DUP1 DUP7 AND DUP5 OR SWAP3 POP POP POP SWAP4 SWAP3 POP POP POP JUMP JUMPDEST PUSH1 0x0 DUP2 SWAP1 POP SWAP2 SWAP1 POP JUMP JUMPDEST PUSH1 0x0 PUSH2 0x106B PUSH2 0x1066 PUSH2 0x1061 DUP5 PUSH2 0x882 JUMP JUMPDEST PUSH2 0x1046 JUMP JUMPDEST PUSH2 0x882 JUMP JUMPDEST SWAP1 POP SWAP2 SWAP1 POP JUMP JUMPDEST PUSH1 0x0 DUP2 SWAP1 POP SWAP2 SWAP1 POP JUMP JUMPDEST PUSH2 0x1085 DUP4 PUSH2 0x1050 JUMP JUMPDEST PUSH2 0x1099 PUSH2 0x1091 DUP3 PUSH2 0x1072 JUMP JUMPDEST DUP5 DUP5 SLOAD PUSH2 0xFF4 JUMP JUMPDEST DUP3 SSTORE POP POP POP POP JUMP JUMPDEST PUSH1 0x0 SWAP1 JUMP JUMPDEST PUSH2 0x10AE PUSH2 0x10A1 JUMP JUMPDEST PUSH2 0x10B9 DUP2 DUP5 DUP5 PUSH2 0x107C JUMP JUMPDEST POP POP POP JUMP JUMPDEST JUMPDEST DUP2 DUP2 LT ISZERO PUSH2 0x10DD JUMPI PUSH2 0x10D2 PUSH1 0x0 DUP3 PUSH2 0x10A6 JUMP JUMPDEST PUSH1 0x1 DUP2 ADD SWAP1 POP PUSH2 0x10BF JUMP JUMPDEST POP POP JUMP JUMPDEST PUSH1 0x1F DUP3 GT ISZERO PUSH2 0x1122 JUMPI PUSH2 0x10F3 DUP2 PUSH2 0xFC2 JUMP JUMPDEST PUSH2 0x10FC DUP5 PUSH2 0xFD7 JUMP JUMPDEST DUP2 ADD PUSH1 0x20 DUP6 LT ISZERO PUSH2 0x110B JUMPI DUP2 SWAP1 POP JUMPDEST PUSH2 0x111F PUSH2 0x1117 DUP6 PUSH2 0xFD7 JUMP JUMPDEST DUP4 ADD DUP3 PUSH2 0x10BE JUMP JUMPDEST POP POP JUMPDEST POP POP POP JUMP JUMPDEST PUSH1 0x0 DUP3 DUP3 SHR SWAP1 POP SWAP3 SWAP2 POP POP JUMP JUMPDEST PUSH1 0x0 PUSH2 0x1145 PUSH1 0x0 NOT DUP5 PUSH1 0x8 MUL PUSH2 0x1127 JUMP JUMPDEST NOT DUP1 DUP4 AND SWAP2 POP POP SWAP3 SWAP2 POP POP JUMP JUMPDEST PUSH1 0x0 PUSH2 0x115E DUP4 DUP4 PUSH2 0x1134 JUMP JUMPDEST SWAP2 POP DUP3 PUSH1 0x2 MUL DUP3 OR SWAP1 POP SWAP3 SWAP2 POP POP JUMP JUMPDEST PUSH2 0x1177 DUP3 PUSH2 0x9D7 JUMP JUMPDEST PUSH8 0xFFFFFFFFFFFFFFFF DUP2 GT ISZERO PUSH2 0x1190 JUMPI PUSH2 0x118F PUSH2 0xACA JUMP JUMPDEST JUMPDEST PUSH2 0x119A DUP3 SLOAD PUSH2 0xDF5 JUMP JUMPDEST PUSH2 0x11A5 DUP3 DUP3 DUP6 PUSH2 0x10E1 JUMP JUMPDEST PUSH1 0x0 PUSH1 0x20 SWAP1 POP PUSH1 0x1F DUP4 GT PUSH1 0x1 DUP2 EQ PUSH2 0x11D8 JUMPI PUSH1 0x0 DUP5 ISZERO PUSH2 0x11C6 JUMPI DUP3 DUP8 ADD MLOAD SWAP1 POP JUMPDEST PUSH2 0x11D0 DUP6 DUP3 PUSH2 0x1152 JUMP JUMPDEST DUP7 SSTORE POP PUSH2 0x1238 JUMP JUMPDEST PUSH1 0x1F NOT DUP5 AND PUSH2 0x11E6 DUP7 PUSH2 0xFC2 JUMP JUMPDEST PUSH1 0x0 JUMPDEST DUP3 DUP2 LT ISZERO PUSH2 0x120E JUMPI DUP5 DUP10 ADD MLOAD DUP3 SSTORE PUSH1 0x1 DUP3 ADD SWAP2 POP PUSH1 0x20 DUP6 ADD SWAP5 POP PUSH1 0x20 DUP2 ADD SWAP1 POP PUSH2 0x11E9 JUMP JUMPDEST DUP7 DUP4 LT ISZERO PUSH2 0x122B JUMPI DUP5 DUP10 ADD MLOAD PUSH2 0x1227 PUSH1 0x1F DUP10 AND DUP3 PUSH2 0x1134 JUMP JUMPDEST DUP4 SSTORE POP JUMPDEST PUSH1 0x1 PUSH1 0x2 DUP9 MUL ADD DUP9 SSTORE POP POP POP JUMPDEST POP POP POP POP POP POP JUMP JUMPDEST PUSH1 0x0 DUP2 SWAP1 POP SWAP3 SWAP2 POP POP JUMP JUMPDEST PUSH32 0x31363261366361382D636432392D343063382D626532352D3163623161633736 PUSH1 0x0 DUP3 ADD MSTORE PUSH32 0x6533616400000000000000000000000000000000000000000000000000000000 PUSH1 0x20 DUP3 ADD MSTORE POP JUMP JUMPDEST PUSH1 0x0 PUSH2 0x12A7 PUSH1 0x24 DUP4 PUSH2 0x1240 JUMP JUMPDEST SWAP2 POP PUSH2 0x12B2 DUP3 PUSH2 0x124B JUMP JUMPDEST PUSH1 0x24 DUP3 ADD SWAP1 POP SWAP2 SWAP1 POP JUMP JUMPDEST PUSH1 0x0 PUSH2 0x12C8 DUP3 PUSH2 0x129A JUMP JUMPDEST SWAP2 POP DUP2 SWAP1 POP SWAP2 SWAP1 POP JUMP JUMPDEST PUSH1 0x0 DUP2 MLOAD SWAP1 POP SWAP2 SWAP1 POP JUMP JUMPDEST PUSH1 0x0 DUP2 SWAP1 POP PUSH1 0x20 DUP3 ADD SWAP1 POP SWAP2 SWAP1 POP JUMP JUMPDEST PUSH1 0x0 PUSH2 0x12F9 DUP3 MLOAD PUSH2 0xCBC JUMP JUMPDEST DUP1 SWAP2 POP POP SWAP2 SWAP1 POP JUMP JUMPDEST PUSH1 0x0 PUSH2 0x130D DUP3 PUSH2 0x12D2 JUMP JUMPDEST DUP3 PUSH2 0x1317 DUP5 PUSH2 0x12DD JUMP JUMPDEST SWAP1 POP PUSH2 0x1322 DUP2 PUSH2 0x12ED JUMP JUMPDEST SWAP3 POP PUSH1 0x10 DUP3 LT ISZERO PUSH2 0x1362 JUMPI PUSH2 0x135D PUSH32 0xFFFFFFFFFFFFFFFFFFFFFFFFFFFFFFFF00000000000000000000000000000000 DUP4 PUSH1 0x10 SUB PUSH1 0x8 MUL PUSH2 0xFE7 JUMP JUMPDEST DUP4 AND SWAP3 POP JUMPDEST POP POP SWAP2 SWAP1 POP JUMP JUMPDEST PUSH1 0x0 PUSH1 0x80 DUP3 ADD SWAP1 POP DUP2 DUP2 SUB PUSH1 0x0 DUP4 ADD MSTORE PUSH2 0x1383 DUP2 DUP8 PUSH2 0xA2E JUMP JUMPDEST SWAP1 POP PUSH2 0x1392 PUSH1 0x20 DUP4 ADD DUP7 PUSH2 0x940 JUMP JUMPDEST DUP2 DUP2 SUB PUSH1 0x40 DUP4 ADD MSTORE PUSH2 0x13A4 DUP2 DUP6 PUSH2 0xA2E JUMP JUMPDEST SWAP1 POP PUSH2 0x13B3 PUSH1 0x60 DUP4 ADD DUP5 PUSH2 0xA73 JUMP JUMPDEST SWAP6 SWAP5 POP POP POP POP POP JUMP JUMPDEST PUSH32 0x4E487B7100000000000000000000000000000000000000000000000000000000 PUSH1 0x0 MSTORE PUSH1 0x51 PUSH1 0x4 MSTORE PUSH1 0x24 PUSH1 0x0 REVERT INVALID LOG2 PUSH5 0x6970667358 0x22 SLT KECCAK256 0xCA 0xD0 0xAC CALLVALUE 0xE8 NOT TIMESTAMP SWAP12 CALL SAR PUSH32 0x1B7699E2DD6494273B33A6517C772B8F7FD10003C564736F6C634300081C0033 "},"methodIdentifiers":{"addEntry(uint256,string,bool)":"cd23533c","entries(uint256)":"b30906d4","getCount()":"a87d942c","getEntry(uint256)":"bae78d7b","getExecutors()":"ef09e78f","getNumbers()":"89f915f6","knownExecutorUuids(uint256)":"fe0bce2e","numbers(uint256)":"d39fa233"}}}}}