{
  "_format": "hh-sol-artifact-1",
  "contractName": "ValueStore",
  "sourceName": "contracts/ValueStore.sol",
  "abi": [
    {
      "anonymous": false,
      "inputs": [
        {
          "indexed": false,
          "internalType": "address",
          "name": "sender",
          "type": "address"
        },
        {
          "indexed": false,
          "internalType": "string",
          "name": "reason",
          "type": "string"
        }
      ],
      "name": "TransactionFailed",
      "type": "event"
    },
    {
      "inputs": [
        {
          "internalType": "uint256",
          "name": "_number",
          "type": "uint256"
        },
        {
          "internalType": "string",
          "name": "_text",
          "type": "string"
        },
        {
          "internalType": "bool",
          "name": "_flag",
          "type": "bool"
        }
      ],
      "name": "addEntry",
      "outputs": [],
      "stateMutability": "nonpayable",
      "type": "function"
    },
    {
      "inputs": [
        {
          "internalType": "uint256",
          "name": "",
          "type": "uint256"
        }
      ],
      "name": "entries",
      "outputs": [
        {
          "internalType": "uint256",
          "name": "number",
          "type": "uint256"
        },
        {
          "internalType": "string",
          "name": "text",
          "type": "string"
        },
        {
          "internalType": "bool",
          "name": "flag",
          "type": "bool"
        }
      ],
      "stateMutability": "view",
      "type": "function"
    },
    {
      "inputs": [],
      "name": "getCount",
      "outputs": [
        {
          "internalType": "uint256",
          "name": "",
          "type": "uint256"
        }
      ],
      "stateMutability": "view",
      "type": "function"
    },
    {
      "inputs": [
        {
          "internalType": "uint256",
          "name": "index",
          "type": "uint256"
        }
      ],
      "name": "getEntry",
      "outputs": [
        {
          "internalType": "uint256",
          "name": "",
          "type": "uint256"
        },
        {
          "internalType": "string",
          "name": "",
          "type": "string"
        },
        {
          "internalType": "bool",
          "name": "",
          "type": "bool"
        }
      ],
      "stateMutability": "view",
      "type": "function"
    },
    {
      "inputs": [],
      "name": "getExecutors",
      "outputs": [
        {
          "internalType": "bytes16[]",
          "name": "",
          "type": "bytes16[]"
        }
      ],
      "stateMutability": "view",
      "type": "function"
    },
    {
      "inputs": [],
      "name": "getNumbers",
      "outputs": [
        {
          "internalType": "uint256[]",
          "name": "",
          "type": "uint256[]"
        }
      ],
      "stateMutability": "view",
      "type": "function"
    },
    {
      "inputs": [
        {
          "internalType": "uint256",
          "name": "",
          "type": "uint256"
        }
      ],
      "name": "knownExecutorUuids",
      "outputs": [
        {
          "internalType": "bytes16",
          "name": "",
          "type": "bytes16"
        }
      ],
      "stateMutability": "view",
      "type": "function"
    },
    {
      "inputs": [
        {
          "internalType": "uint256",
          "name": "",
          "type": "uint256"
        }
      ],
      "name": "numbers",
      "outputs": [
        {
          "internalType": "uint256",
          "name": "",
          "type": "uint256"
        }
      ],
      "stateMutability": "view",
      "type": "function"
    }
  ],
  "bytecode": "0x6080604052348015600f57600080fd5b506114218061001f6000396000f3fe608060405234801561001057600080fd5b50600436106100885760003560e01c8063cd23533c1161005b578063cd23533c1461012d578063d39fa23314610149578063ef09e78f14610179578063fe0bce2e1461019757610088565b806389f915f61461008d578063a87d942c146100ab578063b30906d4146100c9578063bae78d7b146100fb575b600080fd5b6100956101c7565b6040516100a2919061091e565b60405180910390f35b6100b361021f565b6040516100c0919061094f565b60405180910390f35b6100e360048036038101906100de91906109aa565b61022b565b6040516100f293929190610a82565b60405180910390f35b610115600480360381019061011091906109aa565b6102fa565b60405161012493929190610a82565b60405180910390f35b61014760048036038101906101429190610c21565b61044a565b005b610163600480360381019061015e91906109aa565b61067b565b604051610170919061094f565b60405180910390f35b61018161069f565b60405161018e9190610d7a565b60405180910390f35b6101b160048036038101906101ac91906109aa565b61072d565b6040516101be9190610dab565b60405180910390f35b6060600280548060200260200160405190810160405280929190818152602001828054801561021557602002820191906000526020600020905b815481526020019060010190808311610201575b5050505050905090565b60008080549050905090565b6000818154811061023b57600080fd5b906000526020600020906003020160009150905080600001549080600101805461026490610df5565b80601f016020809104026020016040519081016040528092919081815260200182805461029090610df5565b80156102dd5780601f106102b2576101008083540402835291602001916102dd565b820191906000526020600020905b8154815290600101906020018083116102c057829003601f168201915b5050505050908060020160009054906101000a900460ff16905083565b60006060600080805490508410610346576040517f08c379a000000000000000000000000000000000000000000000000000000000815260040161033d90610e98565b60405180910390fd5b600080858154811061035b5761035a610eb8565b5b90600052602060002090600302016040518060600160405290816000820154815260200160018201805461038e90610df5565b80601f01602080910402602001604051908101604052809291908181526020018280546103ba90610df5565b80156104075780601f106103dc57610100808354040283529160200191610407565b820191906000526020600020905b8154815290600101906020018083116103ea57829003601f168201915b505050505081526020016002820160009054906101000a900460ff1615151515815250509050806000015181602001518260400151935093509350509193909250565b61048b6040518060400160405280601581526020017f616464456e7472792063616c6c656420776974683a0000000000000000000000815250848484610764565b60008303610505577ff4507cb8aaaaa1f7d682cb3b97fd1c843dfb0694c3aa3b2a10d18f8076dce514336040516104c29190610f74565b60405180910390a16040517f08c379a00000000000000000000000000000000000000000000000000000000081526004016104fc90610fa2565b60405180910390fd5b60006040518060600160405280858152602001848152602001831515815250908060018154018082558091505060019003906000526020600020906003020160009091909190915060008201518160000155602082015181600101908161056c919061116e565b5060408201518160020160006101000a81548160ff0219169083151502179055505050600283908060018154018082558091505060019003906000526020600020016000909190919091505560016040516020016105c9906112bd565b6040516020818303038152906040526105e190611302565b90806001815401808255809150506001900390600052602060002090600291828204019190066010029091909190916101000a8154816fffffffffffffffffffffffffffffffff021916908360801c02179055506106766040518060400160405280601c81526020017f616464456e7472792063616c6c2066696e697368656420776974683a00000000815250848484610764565b505050565b6002818154811061068b57600080fd5b906000526020600020016000915090505481565b6060600180548060200260200160405190810160405280929190818152602001828054801561072357602002820191906000526020600020906000905b82829054906101000a900460801b6fffffffffffffffffffffffffffffffff191681526020019060100190602082600f010492830192600103820291508084116106dc5790505b5050505050905090565b6001818154811061073d57600080fd5b9060005260206000209060029182820401919006601002915054906101000a900460801b81565b6108008484848460405160240161077e9493929190611369565b6040516020818303038152906040527f7d24491d000000000000000000000000000000000000000000000000000000007bffffffffffffffffffffffffffffffffffffffffffffffffffffffff19166020820180517bffffffffffffffffffffffffffffffffffffffffffffffffffffffff8381831617835250505050610806565b50505050565b61081d81610815610820610841565b63ffffffff16565b50565b60006a636f6e736f6c652e6c6f679050600080835160208501845afa505050565b61084c819050919050565b6108546113bc565b565b600081519050919050565b600082825260208201905092915050565b6000819050602082019050919050565b6000819050919050565b61089581610882565b82525050565b60006108a7838361088c565b60208301905092915050565b6000602082019050919050565b60006108cb82610856565b6108d58185610861565b93506108e083610872565b8060005b838110156109115781516108f8888261089b565b9750610903836108b3565b9250506001810190506108e4565b5085935050505092915050565b6000602082019050818103600083015261093881846108c0565b905092915050565b61094981610882565b82525050565b60006020820190506109646000830184610940565b92915050565b6000604051905090565b600080fd5b600080fd5b61098781610882565b811461099257600080fd5b50565b6000813590506109a48161097e565b92915050565b6000602082840312156109c0576109bf610974565b5b60006109ce84828501610995565b91505092915050565b600081519050919050565b600082825260208201905092915050565b60005b83811015610a115780820151818401526020810190506109f6565b60008484015250505050565b6000601f19601f8301169050919050565b6000610a39826109d7565b610a4381856109e2565b9350610a538185602086016109f3565b610a5c81610a1d565b840191505092915050565b60008115159050919050565b610a7c81610a67565b82525050565b6000606082019050610a976000830186610940565b8181036020830152610aa98185610a2e565b9050610ab86040830184610a73565b949350505050565b600080fd5b600080fd5b7f4e487b7100000000000000000000000000000000000000000000000000000000600052604160045260246000fd5b610b0282610a1d565b810181811067ffffffffffffffff82111715610b2157610b20610aca565b5b80604052505050565b6000610b3461096a565b9050610b408282610af9565b919050565b600067ffffffffffffffff821115610b6057610b5f610aca565b5b610b6982610a1d565b9050602081019050919050565b82818337600083830152505050565b6000610b98610b9384610b45565b610b2a565b905082815260208101848484011115610bb457610bb3610ac5565b5b610bbf848285610b76565b509392505050565b600082601f830112610bdc57610bdb610ac0565b5b8135610bec848260208601610b85565b91505092915050565b610bfe81610a67565b8114610c0957600080fd5b50565b600081359050610c1b81610bf5565b92915050565b600080600060608486031215610c3a57610c39610974565b5b6000610c4886828701610995565b935050602084013567ffffffffffffffff811115610c6957610c68610979565b5b610c7586828701610bc7565b9250506040610c8686828701610c0c565b9150509250925092565b600081519050919050565b600082825260208201905092915050565b6000819050602082019050919050565b60007fffffffffffffffffffffffffffffffff0000000000000000000000000000000082169050919050565b610cf181610cbc565b82525050565b6000610d038383610ce8565b60208301905092915050565b6000602082019050919050565b6000610d2782610c90565b610d318185610c9b565b9350610d3c83610cac565b8060005b83811015610d6d578151610d548882610cf7565b9750610d5f83610d0f565b925050600181019050610d40565b5085935050505092915050565b60006020820190508181036000830152610d948184610d1c565b905092915050565b610da581610cbc565b82525050565b6000602082019050610dc06000830184610d9c565b92915050565b7f4e487b7100000000000000000000000000000000000000000000000000000000600052602260045260246000fd5b60006002820490506001821680610e0d57607f821691505b602082108103610e2057610e1f610dc6565b5b50919050565b7f496e646578206f7574206f6620626f756e64733a20496e76616c696420696e6460008201527f6578000000000000000000000000000000000000000000000000000000000000602082015250565b6000610e826022836109e2565b9150610e8d82610e26565b604082019050919050565b60006020820190508181036000830152610eb181610e75565b9050919050565b7f4e487b7100000000000000000000000000000000000000000000000000000000600052603260045260246000fd5b600073ffffffffffffffffffffffffffffffffffffffff82169050919050565b6000610f1282610ee7565b9050919050565b610f2281610f07565b82525050565b7f4e756d6265722063616e6e6f74206265207a65726f0000000000000000000000600082015250565b6000610f5e6015836109e2565b9150610f6982610f28565b602082019050919050565b6000604082019050610f896000830184610f19565b8181036020830152610f9a81610f51565b905092915050565b60006020820190508181036000830152610fbb81610f51565b9050919050565b60008190508160005260206000209050919050565b60006020601f8301049050919050565b600082821b905092915050565b6000600883026110247fffffffffffffffffffffffffffffffffffffffffffffffffffffffffffffffff82610fe7565b61102e8683610fe7565b95508019841693508086168417925050509392505050565b6000819050919050565b600061106b61106661106184610882565b611046565b610882565b9050919050565b6000819050919050565b61108583611050565b61109961109182611072565b848454610ff4565b825550505050565b600090565b6110ae6110a1565b6110b981848461107c565b505050565b5b818110156110dd576110d26000826110a6565b6001810190506110bf565b5050565b601f821115611122576110f381610fc2565b6110fc84610fd7565b8101602085101561110b578190505b61111f61111785610fd7565b8301826110be565b50505b505050565b600082821c905092915050565b600061114560001984600802611127565b1980831691505092915050565b600061115e8383611134565b9150826002028217905092915050565b611177826109d7565b67ffffffffffffffff8111156111905761118f610aca565b5b61119a8254610df5565b6111a58282856110e1565b600060209050601f8311600181146111d857600084156111c6578287015190505b6111d08582611152565b865550611238565b601f1984166111e686610fc2565b60005b8281101561120e578489015182556001820191506020850194506020810190506111e9565b8683101561122b5784890151611227601f891682611134565b8355505b6001600288020188555050505b505050505050565b600081905092915050565b7f31363261366361382d636432392d343063382d626532352d316362316163373660008201527f6533616400000000000000000000000000000000000000000000000000000000602082015250565b60006112a7602483611240565b91506112b28261124b565b602482019050919050565b60006112c88261129a565b9150819050919050565b600081519050919050565b6000819050602082019050919050565b60006112f98251610cbc565b80915050919050565b600061130d826112d2565b82611317846112dd565b9050611322816112ed565b925060108210156113625761135d7fffffffffffffffffffffffffffffffff0000000000000000000000000000000083601003600802610fe7565b831692505b5050919050565b600060808201905081810360008301526113838187610a2e565b90506113926020830186610940565b81810360408301526113a48185610a2e565b90506113b36060830184610a73565b95945050505050565b7f4e487b7100000000000000000000000000000000000000000000000000000000600052605160045260246000fdfea2646970667358221220cad0ac34e819429bf11d7f1b7699e2dd6494273b33a6517c772b8f7fd10003c564736f6c634300081c0033",
  "linkReferences": {},
  "deployedLinkReferences": {}
}